:020000040800F2
:10000000E008002075020008E12F0008F128000830
:10001000DD2F0008BD070008F933000800000000CC
:100020000000000000000000000000002131000876
:10003000B508000800000000E52F00082531000881
:100040008F0200088F0200088F0200088F0200084C
:100050008F0200088F0200088F0200088F0200083C
:100060008F0200088F0200088F0200088F0200082C
:100070008F0200088F0200088F0200088F0200081C
:100080008F0200088F0200088F02000800000000A5
:100090000000000000000000000000008F020008C7
:1000A0008F0200088F0200088F0200088F020008EC
:1000B0008F0200088F0200088F020008F528000850
:1000C0008F0200088F0200088F0200088F020008CC
:1000D0008F020008D5330008E1330008000000005B
:1000E0008F0200088F0200088F0200080000000045
:1000F0000000000000000000000000008F02000867
:10010000000000008F0200088F0200088F02000824
:1001100000000000000000000000000000000000DF
:100120008F0200088F0200088F0200088F0200086B
:100130008F02000800000000000000000000000026
:100140000000000000000000000000008F02000816
:100150008F0200088F0200088F020008ED330008AC
:100160008F0200088F02000800000000000000005D
:10017000000000000000000000000000000000007F
:10018000000000008F0200080000000000000000D6
:100190008F0200088F02000800F002F800F05AF801
:1001A00014A696E8000CB244B344DA4501D100F03D
:1001B00051F8BAE80F000FA696E83000A5EB040549
:1001C00004EB0607AAEB0704A7F101074FEA151590
:1001D0004FEA3414A4F10104AC4201D300F03AF820
:1001E00013F0010F18BFFB1A43F0010300F001F8F0
:1001F000DBE71847803E0000A03E0000103A24BF15
:1002000078C878C1FAD8520724BF30C830C144BF7B
:1002100004680C6070470000704700000023002451
:1002200000250026103A28BF78C1FBD8520728BF06
:1002300030C148BF0B607047642900F025817329E5
:1002400000F07D82002070471FB503F07DFE1FBDCA
:1002500010B510BD00F077FA1146FFF7F5FF03F077
:10026000CDF800F095FA03B4FFF7F2FF03BC00F0FD
:100270009DFA00000948804709480047FEE7FEE76D
:10028000FEE7FEE7FEE7FEE7FEE7FEE7FEE7FEE746
:1002900004480549054A064B70470000CD31000867
:1002A00099010008E0020020E0080020E00400209E
:1002B000E004002053EA020C00F069802DE9F04BC5
:1002C0004FF00006002B1FBFB3FA83F503FA05F4C5
:1002D00024FA05F65E4012BF1643B2FA82F502FA1E
:1002E00005F4C5F120051EBF22FA05FC44EA0C0402
:1002F000203556EA044C4FEA144418BF641C4FF0F2
:1003000000084FF00009904271EB030C39D300292B
:1003100019BFB1FA81F701FA07F6B0FA80F700FACF
:1003200007F6C7F120071EBF20FA07FC46EA0C06B5
:100330002037B6FBF4FCA7EB0507103F07F01F0BB7
:10034000CBF120062CFA06F60CFA0BFB44BFB346A1
:100350000026202FA4BF5E464FF0000B5BEA060C80
:1003600008BF4FF0010B19EB0B0948EB0608ABFB7C
:10037000027C06FB02CC0BFB03CCC01B71EB0C0117
:10038000C1E70B46024641464846BDE8F08B13B52F
:10039000084318BF4FF0FF300146AFF30080BDE8BF
:1003A0001C4070470FB41CB5074B06AA7B44694636
:1003B0000090059800F099F90020694600F0A8F92E
:1003C0001CBC5DF814FB0000610300002DE9F04146
:1003D0000E460446002020622046E168884730B37C
:1003E000252805D0D4E901219047206A401CF2E776
:1003F000E168204600278847050018D0A5F1410094
:10040000192802D820354FF4006732462946204685
:100410002760FFF711FF40B1012804D0F61D26F038
:1004200007060836D8E7361DD6E72846DAE7206AF9
:10043000BDE8F08170B50C460546012A05D0287844
:10044000800600D5EA69002302E0012305E05B1C79
:10045000934202D2E05C0028F9D1A869E618C01ADC
:10046000A861286A184428622846AFF3008004E097
:10047000D5E9012114F8010B9047B442F8D328467E
:10048000AFF3008070BD00002DE9F0410646002466
:1004900010687529314616A510D0AFF300800028EA
:1004A00002DA404213A507E031688A0701D512A598
:1004B00002E0490704D511A5012401E0AFF3008053
:1004C00000210A2206F1240709E0B0FBF2FCB0FB90
:1004D000F2F302FB1C00303078541846491C002807
:1004E000F3D123462A463046BDE8F04100F09FB8DC
:1004F000000000002D0000002B0000002000000084
:1005000040EA010310B59B070FD1042A0DD310C890
:1005100008C9121F9C42F8D020BA19BA884201D9E2
:10052000012010BD4FF0FF3010BD1AB1D30703D02A
:10053000521C07E0002010BD10F8013B11F8014BE0
:100540001B1B07D110F8013B11F8014B1B1B01D1FC
:10055000921EF1D1184610BD10B5431C02E010F8F0
:10056000011B71B18107FAD14FF0013202C88C1A18
:100570008C4314EAC211F9D0C01A0A0603D0C01E77
:1005800010BDC01A10BD0A0401D0801E10BD0902A2
:10059000FCD0401E10BD4FF000020429C0F01280B4
:1005A00010F0030C00F01B80CCF1040CBCF1020F26
:1005B00018BF00F8012BA8BF20F8022BA1EB0C01FB
:1005C00000F00DB85FEAC17C24BF00F8012B00F8F1
:1005D000012B48BF00F8012B70474FF0000200B517
:1005E000134694469646203922BFA0E80C50A0E856
:1005F0000C50B1F12001BFF4F7AF090728BFA0E804
:100600000C5048BF0CC05DF804EB890028BF40F8CF
:10061000042B08BF704748BF20F8022B11F0804F11
:1006200018BF00F8012B70477047704770472DE9DD
:10063000F0470D4699469246044600F124080168A9
:10064000880604D5E06921F01001216000E0012056
:10065000A84201DD471B00E00027A1697A1902EBDF
:100660000900081AA0612078C00602D42046AFF322
:100670000080002608E0D4E901211AF8060090471E
:10068000206A401C761C20624E45F4DB2078C006B0
:100690000AD52046AFF3008006E0D4E901213020DE
:1006A0009047206A401C2062381EA7F10107F4DC45
:1006B00007E0D4E9012118F805009047206A401CA2
:1006C0002062281EA5F10105F3DC2046AFF300806F
:1006D0002078000602D50220BDE8F0870120FBE764
:1006E00001694A1C02610878704700B58FB0CDE9F6
:1006F00001310021059105497944CDE903101146E6
:100700006846FFF763FE0FB000BD0000E5FFFFFF86
:100710000A6802F8010B0A60704710B5436913B10B
:10072000AFF3008001E0FFF785FE012010BD1278D5
:1007300000F124010A7000224A700122EDE71168DD
:100740004FF0FF32E9E7754600F02CF8AE460500A1
:100750006946534620F00700854618B020B5FFF7DC
:1007600097FDBDE820404FF000064FF000074FF026
:1007700000084FF0000BAC46ACE8C009ACE8C0097B
:10078000ACE8C009ACE8C00921F007018D4670470C
:1007900010B50446AFF300802046BDE81040FFF7D7
:1007A00062BD0000004870479000002001491820F9
:1007B000ABBEFEE72600020070470000FEE7000027
:1007C000B0B540F2F004C2F20004A17E627E0139AD
:1007D000B1FA81F14D09E17E012A207E08BF013581
:1007E0000129217F08BF01350129617F08BF01353B
:1007F0000129A17F08BF01350129E17F08BF01352B
:10080000012994F8201008BF0135012994F821101E
:1008100008BF0135012994F8221008BF01350129CC
:1008200094F8231008BF0135012994F8241008BF5B
:100830000135012994F8251008BF0135012994F8E4
:10084000261008BF0135012994F8271008BF01358B
:10085000012908BF0135290611D1617A01290ED17C
:1008600001280CD140F2942043F67A71C2F20000C4
:10087000C0F600010522322301F06EFF207E002128
:100880000028E8B24FF000020CD10246002818BF41
:100890000122237A4FF0FF3555FA83F3B3FA83F33D
:1008A0005B091A43E379A272984288BF0121E17281
:1008B000B0BD00007047000070B5866D044600F0C2
:1008C00013FA94F83510022928D105462068216CC6
:1008D000026822F016020260426922F08002426140
:1008E00009B9A16C19B1016821F008010160016822
:1008F00021F00101016000BF20680068C00715D029
:1009000000F0F2F9401B0628F6D320206065032092
:1009100084F83500002184F8341070BD80206065B3
:100920000120002184F8341070BD00BFE06D3F212C
:1009300001FA00F0B060012084F8350000200021A9
:1009400084F8341070BD000090F83510022909D1E8
:10095000052180F835100068016821F0010101606F
:1009600000207047802141650120704790F83500D4
:10097000704700002DE9F04F82B000F13E4241F295
:100980000007894602F1FF72C4F2020707214FEA0D
:10099000B223B84208BF042100F120070024042537
:1009A0004FF0020B0097042B38BF4FEAB2210191A0
:1009B00026E000BF0168032202FA0BF291430160B6
:1009C0006FF00301009F01EA540305F01C0CFE5870
:1009D0000F2101FA0CF126EA0101F950C168D14654
:1009E0009143C160416821EA0E01416081689143F1
:1009F000816002340835102C0BF1040B00F0A0804C
:100A0000012101FA04F818EA090A59D043F6004115
:100A1000C4F201012F1FA1F57E7C24F0030207F030
:100A2000080E0F215CF8023001FA0EF20199134012
:100A300001FA0EF6B34224D143F6004EC4F2010E81
:100A4000DEF8003043F60C4123EA0A03CEF800300A
:100A5000DEF80430C4F2010123EA0A03CEF80430C0
:100A60000B68A60823EA0A030B60DEF8083023EAC5
:100A70000A03CEF808305CF8263023EA02024CF86C
:100A80002620ABF102020368032101FA02F293432C
:100A9000036007F0180C6FF00301009F01EA540691
:100AA000B9590F2303FA0CF39943B951C168914323
:100AB000C160416821EA0801416081689143816019
:100AC000022101FA04FE1EEA090292D043F6004117
:100AD000C4F20101CA46A1F57E7924F0030105F0B4
:100AE0000C060F2359F8011003FA06FC019B01EADA
:100AF0000C0103FA06F6B1427FF45CAF43F60048FE
:100B0000C4F20108D8F8001043F60C469143C8F827
:100B10000010D8F80410C4F201069143C8F804107C
:100B2000316891433160D8F80810A6089143C8F89D
:100B3000081059F8261021EA0C0149F8261039E767
:100B400002B0BDE8F08F00002DE9F04F83B000F156
:100B5000200200F13E4741F20005009207F1FF77C5
:100B6000C4F2020507224FEAB726A84208BF0422B2
:100B700000254FF000084FF00009042E38BF4FEA5F
:100B8000B72201920AE000BF09F1010908F1020849
:100B9000B9F1100F05F1040500F0A2800F680122E1
:100BA00002FA09FE17EA0E0AEED0D1F804C00322B9
:100BB0000CF003077E1E02FA08F4012E6FEA040B04
:100BC00012D88468CE6804EA0B0406FA08F63443A7
:100BD0008460446824EA0E06CCF3001404FA09F495
:100BE0002643466004E000BF032F01D103271EE027
:100BF000C6688C6806EA0B0604FA08F42643022F3E
:100C0000C66014D16FF00302009E02EA590756F83D
:100C100007C005F01C040F220B69A2402CEA020257
:100C2000A3401A43F251D1F804C00CF00307026844
:100C300007FA08F302EA0B021A431CF4403F026071
:100C4000A2D0002243F644030292C4F202031A68BF
:100C500043F6004442F480421A601A68C4F2010468
:100C600002F480420292029A29F003024FF6084CE5
:100C70002244CFF6FF7C52F80C3005F00C070F260B
:100C8000BE40B343019E06FA07F73B4342F80C30DF
:100C9000A2684B6842EA0A0743F60C4CDE0258BFD2
:100CA00022EA0A07A760C4F2010CDCF800209E02C9
:100CB00042EA0A0758BF22EA0A07CCF800706268C5
:100CC0009E0342EA0A0758BF22EA0A0767602268C1
:100CD000DB0342EA0A0758BF22EA0A07276053E704
:100CE00003B0BDE8F08F000040F2DC20C2F200004B
:100CF000006870477047000070470000002804BF7C
:100D00000120704710B5242180F83D100168044689
:100D10000A6822F001020A6000F0ECFB0020206467
:100D200084F83D00206384F83E0084F83C0010BD48
:100D3000F0B581B007687968C26A90F83E5090F8C3
:100D40003DE0402D01D0102D34D1BB697C69E60710
:100D500018D1B2F12A4F00F06B82B2F52A0F00F0E1
:100D60006782220701F4007240F10681002A00F038
:100D70000381416B426C0029D2B23A6140F0B080ED
:100D8000B0E000BF8A0543D44FF0010C7A685B07DE
:100D90006ED4120500F14C8204F04402402A40F067
:100DA000598111F4806100F0558101B0BDE8F04037
:100DB00001F078BF026C01F40073002A0CBFBC691B
:100DC00000247D69AA0729D543B3016C002918BF07
:100DD000BC6990F83D1001F02801282940F0C0803E
:100DE0007968012221F48061796004F0040182EACB
:100DF000910122064FF0180258BF0C22825A00239C
:100E000080F83C3001B0BDE8F040FFF775BF00BF8F
:100E1000C16AB1F52A0F3DD1012140E0EA066FD544
:100E2000002B6DD090F83D50796821F4E061796035
:100E30000021009179690091396841F00101396020
:100E40000099396821F4806139607968090540F1B9
:100E50007D8105F0F7010446222940F04D8154F8C8
:100E6000381F0A68526824F80E2C34F80E2C4BE117
:100E7000120500F1DD8104F08402802A40F0FA803E
:100E800011F4806100F0F68001B0BDE8F04001F09F
:100E9000EBBF00BFC16AB1F12A4F01D10821C16285
:100EA00090F83E1040290BD1016D406C002900F0F4
:100EB000FE0018BF40F00100386101B0F0BD00BF76
:100EC0000169B1F5804F40F0898090F83D10426C87
:100ED000212902F0FE0218BF01323A61416B09B1CB
:100EE000C96B39B9806B002800F0A281C06B002863
:100EF00000F09E81786840F40060786001B0F0BD39
:100F00000EF0F702212A79D105F08402802A40F000
:100F1000C58011F4806100F0C18090F83D10428DD1
:100F2000002A00F08581426A12F8013B3B6142626F
:100F3000428D013A4285428D002A08BF292940F09E
:100F40007781796821F4806179602121016328210A
:100F500080F83D1001B0BDE8F04000F061BB00BF7B
:100F6000002100917A690092BA690092009A80F893
:100F70003C1001B0F0BD00BF4FF0010CA6078CEA99
:100F8000522C7FF503AF002A3FF400AF90F83E20CB
:100F9000C16A036B90F83D60222E40F0A380066D7D
:100FA000002E08BF402A00F09D80026D002A40F00C
:100FB00041810269B2F5404F40F03C81002100912F
:100FC00079690091B96900910099396841F480719B
:100FD0003960016D0131016501B0F0BD016D00297D
:100FE00000F00481016D012940F02281406C06214E
:100FF00001EAD010F130386101B0F0BD05F04402D3
:10100000402A5BD111F4806158D090F83D10428D98
:10101000002A00F00D813A69436A1A70426A01326F
:101020004262428D013A4285428D002A08BF2A2938
:1010300040F0FE8001684A6822F480624A60222102
:101040000163282180F83D1001B0BDE8F04000F0B8
:10105000B5BA00BF04F00401012282EA910141EA1D
:101060000C01C90740F0E48001B0BDE8F04001F098
:101070009DBD00BF04F00401012282EA910141EA12
:101080000C01C90740F0D480BEF1210F40F0C880A8
:1010900001B0BDE8F04001F0A5BE00BF690740F116
:1010A000C780002B00F0C480418D002900F0C08073
:1010B000416A11F8012B3A610FE000BF690740F166
:1010C000B780002B00F0B480418D002900F0B08083
:1010D0003969426A1170416A01314162418D0139B9
:1010E0004185A5E00020009078690090B8690090E3
:1010F000009801B0F0BD00BF54F8341F0A68526870
:1011000024F80A2C34F80A2C1AB1026C42F00402BA
:1011100002647A68064622F4006208467A60FFF7A5
:1011200025FC01463046012910D0206842F6011105
:10113000C0F600010165FFF707FC0146304629B102
:10114000216804460A6D084690472046418D61B1EA
:1011500001684A6952072FD44A69520639D4418D31
:1011600019B1016C41F004010164016C21B101B0BD
:10117000BDE8F04001F054BC2A2D08D100210163E4
:10118000282180F83D10044600F018FA204690F817
:101190003D10282932D10021CFF6FF71C162002114
:1011A0002022016380F83D2080F83E1001B0BDE8A8
:1011B000F04000F095B900BF0969426A1170426AB7
:1011C000016801324262428D013A42854A69520603
:1011D000C5D50969426A1170416A01314162418D88
:1011E00001394185418D0029BBD1BEE7406C062104
:1011F00001EAD010F030386101B0F0BD016B222956
:1012000018BF222D14D100212022016380F83D2037
:1012100080F83E1001B0BDE8F04000F0CFB900BF4B
:10122000402D05D101B0BDE8F04001F077BE00BF10
:1012300001B0F0BD428D52B1428D012A16D1202954
:1012400018BF082926D1396821F48061396000214E
:10125000009179690091B96900910099396841F468
:10126000007139600021016501B0F0BD428D022A94
:101270000CD1102932D8012214238A40C0F2010374
:101280001A422BD04FF480622EE000BF3A6842F43D
:1012900080622BE011F5803F0CD1396821F4806128
:1012A000396079680905D2D5396821F480613960DF
:1012B00030E000BF122B01D10129C4D11029F3D88D
:1012C000012202FA01F11422C0F201021142EBD014
:1012D000396841F4806139601CE000BF3A6822F44B
:1012E00080623A604FF400623B681A433A607A6861
:1012F00012050FD54A1E1F2A18D8012303FA02F23D
:1013000048F28103C8F200031A420FD0796841F411
:10131000805179600021009179690091B96900914B
:1013200000990021016501B0F0BD00BF11F5803FBB
:10133000ECD0EFE7006845F20041C4F200018842BA
:1013400018BF704710B540F2B014C2F20004204636
:10135000FFF7D4FC204600F011F840F2F003C2F28F
:1013600000034FF0000C03F10E012046012283F828
:101370000DC0BDE8104000F055B90000002804BFC2
:1013800001207047F0B581B0044690F83D0028B9BF
:10139000002084F83C00204600F0CCF8242084F89B
:1013A0003D002068016821F001010160016841F4FD
:1013B00000410160016821F40041016000F0F8FA89
:1013C000636848F2A16CC0F2010C40F60011C0F253
:1013D0003D0163453CBF48F28041C0F21E01884296
:1013E00002D2012001B0F0BD4DF68361C4F21B3181
:1013F000A0FB01122168970CD1F804E04FF4967617
:101400002EF03F0545EA92454D60774348F6381681
:101410000D6AC0F24106A7FB067625F03F0763453B
:1014200038BF960C721C3A430A62CA6948F2A06639
:101430004CF6FF77C0F20106B34222EA07020BD84E
:1014400001385B00B0FBF3F001306FF31F3004286C
:1014500098BF04201BE000BFA768013857B11927C7
:101460007B43B0FBF3F001306FF31F3070B100F538
:10147000804007E003EB4303B0FBF3F001306FF370
:101480001F3018B100F5004001E000BF01201043FB
:10149000C8610868D4E9072320F0C000104318434E
:1014A0000860886848F2FF3204F10C0790438CCF43
:1014B00018431043A6698860C86820F0FF003843CD
:1014C0003043C860086840F0010008600020202117
:1014D000206484F83D10206384F83E0001B0F0BD24
:1014E0007047000070470000704700007047000020
:1014F0007047000010B540F20044C4F202040068D6
:10150000A4F5D831884218BF10BD43F64000C4F29C
:101510000200016821F40011016020464021FFF71C
:1015200029FA20468021FFF725FA1F20BDE8104048
:1015300000F028B9B0B586B045F200410068C4F2A9
:101540000001002488420594CDE9034402940194EB
:1015500002D006B0B0BD00BF43F630050094C4F21F
:101560000205286840F002002860286800F00200A8
:1015700000900098C020019012200290012003905A
:10158000032004900420059001F5D83001A9FFF74D
:10159000DBFA00942869002140F4001028612869D2
:1015A000002200F40010009000981F2000F012F9B3
:1015B0001F2000F0FDF806B0B0BD0000006845F245
:1015C0000041C4F20001884218BF704740F2F000A9
:1015D000C2F20000427B817B002A08BF012907D0AC
:1015E000022A09D0012A0BD10175022141730EE0B4
:1015F000012141730BE000BF41750321417306E0F7
:101600000023032A437302BF09290121017300F15A
:101610000E0140F2B010C2F20000012200F002B848
:101620007047000090F83D30202B0BD100294FF07F
:10163000010318BF002A01D11846704790F83C30CA
:10164000012B03D102231846704700BFD0F800C019
:10165000DCF80030DB0705D1DCF8003043F0010393
:10166000CCF80030DCF8003023F40063CCF8003014
:10167000222380F83D30202380F83E30002303648D
:1016800041624285418D01850021CFF6FF71C16223
:10169000DCF8001041F48061CCF8001080F83C3098
:1016A000DCF8040040F4E060CCF804001846704711
:1016B00040F2000040F2DC21C2F20000C2F2000160
:1016C00000780A68104408607047000080B543F64F
:1016D0000040C4F20200016841F400710160016839
:1016E00041F480610160016841F480710160032070
:1016F00000F09CF80F2000F005F800F027F800201B
:1017000080BD000070B540F20006C2F2000640F253
:1017100008013278C2F200014FF47A730968B3FB12
:10172000F2F20446B1FBF2F1084600F077FB0F2C11
:101730004FF0010508D838B94FF0FF30214600229C
:10174000002500F047F87460284670BD82B0002084
:1017500043F640010190C4F202014A6842F480421B
:101760004A604A6802F480420192019A0090086837
:1017700040F080500860086800F0805000900098A9
:1017800002B07047002848BF704700F01F010122D7
:1017900002FA01F11C2202EAD0004EF28012CEF2CF
:1017A00000028150BFF34F8FBFF36F8F704700006F
:1017B000002848BF704700F01F01012202FA01F122
:1017C0001C2202EAD0004EF20012CEF2000281503A
:1017D0007047000010B54EF60C5CCEF2000CDCF841
:1017E0000030C3F3022E8EF00704042C28BF04241B
:1017F000BEF103034FF0FF3E0EFA04F438BF00239E
:10180000A14399400EFA03F39A43114300F00F02EB
:1018100000F160430901043A03F56443624400287F
:1018200048BF02F10C03197010BD00004EF60C51B8
:10183000CEF200010A684FF6FF031A4060F30A2255
:1018400042F0806040F0FD7008607047002804BFDF
:10185000012070472DE9F04143F60808C4F2020860
:101860000446D8F8F8030D4600F00700814207D976
:1018700088F8F853D8F8F80300F00700A84277D1A9
:101880002068810717D5410705D5D8F8001041F425
:10189000E051C8F80010010705D5D8F8001041F450
:1018A0006041C8F80010D8F80010A26821F0F001DB
:1018B0001143C8F80010C00740D1D8F8F80300F071
:1018C0000700854207D288F8F853D8F8F80300F0EB
:1018D0000700A8424CD12068410707D5D8F800106E
:1018E000E26821F4E0511143C8F80010000708D560
:1018F000D8F80000216920F4604040EAC100C8F82F
:10190000000000F07DF8D8F8001043F66272C1F3D1
:101910000311C0F60002515C40F2080220FA01F106
:1019200040F20400C2F200000068C2F2000211603E
:10193000FFF7E8FE0020BDE8F08100BF6068811E6F
:10194000022907D258F8081C89015CBF0120BDE8B4
:10195000F08111E0012807D158F8081C89035CBF09
:101960000120BDE8F08107E058F8081C890703D47E
:101970000120BDE8F08100BFD8F8001021F003017C
:101980000843C8F80000FFF7AFF9064641F2883770
:10199000D8F80000616800F00C00B0EB810F8CD02B
:1019A000FFF7A2F9801BB842F2D90320BDE8F0810D
:1019B00040F2080043F60801C2F20000C4F202013E
:1019C0000068096843F67272C1F38221C0F6000212
:1019D000515CC8407047000040F2080043F608011F
:1019E000C2F20000C4F202010068096843F6727294
:1019F000C1F34231C0F60002515CC840704700009C
:101A000010B543F60404C4F202046168C1F3810115
:101A100042F20040C0F2F400DFE801F002040A02E2
:101A200010BD00BF47F64000C0F27D1010BD00BFE2
:101A3000206821682368490247F64001C0F27D1101
:101A400000F03F02C3F388105CBF42F20041C0F2D5
:101A5000F401A1FB00010023FEF72CFC2168022207
:101A6000C1F3014102EB4101B0FBF1F010BD0000F8
:101A7000002804BF012070472DE9F04182B00446E0
:101A8000007843F60006C007C4F202060CD0B06826
:101A900000F00C00042840F081803068800303D5FA
:101AA0006068002800F06881207880071BD5B06846
:101AB00010F00C0F09D0B06800F00C00082840F0BE
:101AC00087807068400200F183803068800703D50A
:101AD000E068012840F050813068216920F0F8006A
:101AE00040EAC10030602078000713D42078400716
:101AF0002AD4A569002D00F03A81B06800F00C00EE
:101B0000082840F0A580012D40F00E81012002B090
:101B1000BDE8F0816069002800F082800020C4F2F6
:101B200047200121C0F8801EFFF7DEF8054600BF00
:101B3000706F8007DAD4FFF7D7F8401B0228F7D977
:101B4000032002B0BDE8F081306C5FEAC0080AD41F
:101B500000200190306C40F080503064306C00F018
:101B600080500190019847F20007C4F200073868DE
:101B7000C00547D4386840F480703860FFF7B4F887
:101B8000054600BF3868C0053CD4FFF7ADF8401BE0
:101B90000228F7D9032002B0BDE8F081B06800F058
:101BA0000C00082803D1706840023FF576AF6168E9
:101BB0003068B1F5803F07D0B1F5A02F40F09A8092
:101BC00040F480203060306840F4803030609AE02B
:101BD000E068002840F20000C4F247205CD00121F8
:101BE0000160FFF781F80546306880073FF574AF64
:101BF000FFF77AF8401B0228F6D9032002B0BDE8AF
:101C0000F08100BFA168306F012905D0052955D1A9
:101C100040F004003067306F40F00100306756E05C
:101C20000020C4F247200021C0F8801EFFF75CF8B6
:101C3000054600BF706F80077FF558AFFFF754F877
:101C4000401B0228F6D9032002B0BDE8F08100BF96
:101C50000027C4F2472700203866FFF745F8022D19
:101C600005460DD13068800140F18A80FFF73CF8CD
:101C7000401B02284FF00300F4D902B0BDE8F08108
:101C80003068800173D5FFF72FF8401B02284FF012
:101C90000300F5D9F1E700BF00210160FFF724F848
:101CA000054600BF306880077FF51DAFFFF71CF8C1
:101CB000401B02284FF00300F4D9DEE720F00100BA
:101CC0003067306F002920F0040030677AD0FFF7CA
:101CD0000BF8054641F28837306F800700F18480A9
:101CE000FFF702F8401BB842F6D9032002B0BDE866
:101CF000F08100BF20F4803030603068002920F48B
:101D0000802030607AD0FEF7EFFF05463068800310
:101D10003FF5CAAEFEF7E8FF401B6428F6D9032062
:101D200002B0BDE8F08100BF7068E16900F4800294
:101D30008A4221D1216A00F03F028A421CD147F633
:101D4000C071626A0140B1EB821F15D1A16A4FF6E2
:101D5000FF73C903994300F44032A1F580318A42F0
:101D60000AD1E16A00F07060B0EB016F04D100208D
:101D700002B0BDE8F08100BF012002B0BDE8F081F3
:101D800004F11C052FCD084340EA8210D9034FF619
:101D9000FF729143A1F5803140EA0560084370600D
:101DA00001203866FEF7A0FF044600BF30688001BE
:101DB000DDD4FEF799FF001B02284FF00300F5D990
:101DC0005BE700BFFEF790FF054641F2883700BF92
:101DD000306F800708D5FEF787FF401BB8424FF0F1
:101DE0000300F5D949E700BFB8F1000F3FF581AE18
:101DF000306C20F0805030647BE600BFFEF774FF4B
:101E0000054600BF306880037FF54EAEFEF76CFFDD
:101E1000401B64284FF00300F4D92EE7411E002038
:101E2000B0EB116F1CBF012070474EF21002CEF2D2
:101E3000000251604EF62351CEF20001F0230B70E8
:101E4000072190601160704770470000006844F2FD
:101E50000041C4F20001884228D041F20041C4F29E
:101E60000101884214D041F20001C4F2010188420C
:101E700018BF704740F2F000C2F2000000F10F01FD
:101E800040F20420C2F20000012200F09DBB00BF1E
:101E900040F2F000C2F2000000F1110140F2942083
:101EA000C2F20000012200F08FBB00BF40F2F00040
:101EB000C2F2000000F1100140F24C20C2F200001A
:101EC000012200F081BB0000B0B582B001680A6851
:101ED000CC684B6902F02F05202D04F0200505D1B8
:101EE00025B102B0BDE8B04001F080B95FEA027CE4
:101EF0001EBF03F0010E04F4907313EB0E0341D1E7
:101F0000036BD50618D5012B16D114F0100313D08E
:101F1000002201920A6801924A680192019A496975
:101F200049064BD4818DC28DC38D002B18BF9142C1
:101F300040F0068202B0B0BD13062DD514F0800328
:101F40002AD090F84120212AF4D18268B2F5805F2E
:101F500003D10269002A00F07982026A531C0362ED
:101F600012784A60C28C013A1304C284E2D1C86874
:101F700020F08000C860C86840F04000C86002B02F
:101F8000B0BD00BFD30718BF14F4807340F0E280E7
:101F9000530700F1E580EAE05206CBD514F0400289
:101FA000C8D0CA6822F04002CA60202180F84110DF
:101FB00002B0BDE8B04000F099BC00BFC26B116830
:101FC0004B68858D99B2002900F0B480A94280F059
:101FD000B180C385D169B1F5807F00F0A080016830
:101FE00051E8031F026821F4807142E80313DBB15A
:101FF000016851E8031F026821F4807142E803136D
:1020000093B1016851E8031F026821F4807142E82E
:1020100003134BB1016851E8031F026821F480717A
:1020200042E80313002BDAD1016851E8051F02686A
:1020300021F0010142E80513BBB3016851E8051F17
:10204000026821F0010142E8051373B3016851E809
:10205000051F026821F0010142E805132BB3016856
:1020600051E8051F026821F0010142E80513002B29
:10207000DAD11AE0016851E8051F026821F0400139
:1020800042E80513DBB1016851E8051F026821F041
:10209000400142E8051393B1016851E8051F026849
:1020A00021F0400142E805134BB1016851E8051FDA
:1020B000026821F0400142E80513002BDAD120210B
:1020C00080F8421000210163016851E8031F026893
:1020D00021F0100142E80313DBB1016851E8031F4E
:1020E000026821F0100142E8031393B1016851E83E
:1020F000031F026821F0100142E803134BB101688D
:1021000051E8031F026821F0100142E80313002B7D
:10211000DAD1C16B04460846FEF7CEFB2046022109
:102120004163818DC28D891A89B202B0BDE8B04089
:10213000FFF78ABE8D427FF4FDAED269B2F5807F93
:102140007FF4F8AE0222426302B0BDE8B040FFF770
:102150007BBE00BF436C43F001034364530706D5C5
:10216000BEF1000F03D0436C43F0020343649307B6
:1021700006D5BEF1000F03D0436C43F00403436463
:10218000BCF1000F06D55EEA050303D0436C43F0B3
:1021900008034364436C002B3FF4CCAE920605D594
:1021A00025B1044601F022F8216820464969426CB5
:1021B00001F0400102F00802891800F0B98000BF68
:1021C000016851E8031F026821F4907142E803138B
:1021D000BBB3016851E8031F026821F4907142E823
:1021E000031373B3016851E8031F026821F490716F
:1021F00042E803132BB3016851E8031F026821F47E
:10220000907142E80313002BDAD11AE0016851E81B
:10221000051F026821F0010142E80513DBB10168E6
:1022200051E8051F026821F0010142E8051393B14E
:10223000016851E8051F026821F0010142E8051319
:102240004BB1016851E8051F026821F0010142E825
:102250000513002BDAD1016B012924D1016851E863
:10226000031F026821F0100142E80313DBB101688B
:1022700051E8031F026821F0100142E8031393B1F3
:10228000016851E8031F026821F0100142E80313BE
:102290004BB1016851E8031F026821F0100142E8C8
:1022A0000313002BDAD1202180F8421000210163B2
:1022B00001684969490640F1C380016851E8051F7A
:1022C000026821F0400142E80513DBB1016851E8E2
:1022D000051F026821F0400142E8051393B101682F
:1022E00051E8051F026821F0400142E805134BB197
:1022F000016851E8051F026821F0400142E805131A
:10230000002BDAD1C16B002900F09A8043F2E11270
:10231000C0F60002044608460A65FEF715FB0028D1
:102320003FF408AEE06B016D02B0BDE8B040084775
:102330000446FFF78BFD0020606402B0B0BD00BF13
:10234000891A00BF026852E8032F036822F49072D2
:1023500043E80325BDB3026852E8032F036822F463
:10236000907243E8032575B3026852E8032F0368AF
:1023700022F4907243E803252DB3026852E8032F3C
:10238000036822F4907243E80325002DDAD11AE0A5
:10239000026852E8052F036822F0010243E8052590
:1023A000DDB1026852E8052F036822F0010243E81C
:1023B000052595B1026852E8052F036822F0010255
:1023C00043E805254DB1026852E8052F036822F065
:1023D000010243E80525002DDAD1202280F84220B1
:1023E00000220263026852E8032F036822F0100201
:1023F00043E80325DDB1026852E8032F036822F0A9
:10240000100243E8032595B1026852E8032F0368E0
:1024100022F0100243E803254DB1026852E8032F71
:10242000036822F0100243E80325002DDAD10222CE
:1024300089B2426302B0BDE8B040FFF705BD00BFFE
:1024400002B0BDE8B040FFF701BD00BF026A32F83C
:10245000023B6FF35F234B60026283E5002804BFF9
:102460000120704710B5044690F8410028B90020BB
:1024700084F84000204600F021F8242084F8410030
:102480002068C16821F40051C160204600F02EFF91
:102490002068016921F490410161416921F02A011C
:1024A0004161C16841F40051C16000202021606495
:1024B00084F8411084F84210606310BD10B586B0F6
:1024C000006844F20042C4F2000200219042CDE9CB
:1024D0000411CDE90211019142D041F20041C4F250
:1024E000010188421ED041F20001C4F2010188427C
:1024F00067D1002043F630010090C4F202014A691E
:10250000252442F010024A614A6902F0100200924A
:10251000009A0090086840F00100086008684FF4D5
:10252000C06133E0002043F630010090C4F20201A4
:102530004A69472442F020024A614A6902F02002B7
:102540000092009A0090086840F001000860086856
:102550004FF4C05100F001000090009808201AE0EC
:1025600043F630000091C4F202000269262442F4CE
:1025700000320261026902F400320092009A009176
:10258000016841F00101016000680C2100F00100C8
:1025900000900098072001910221029100210391EF
:1025A0000321CDE904100020C4F2020001A9FEF7C6
:1025B000CBFA204600210022FFF70CF92046FFF756
:1025C000F7F806B010BD000090F84230202B07D17C
:1025D00000294FF0010318BF002A05D118467047A3
:1025E00002231846704700BF002303638162222143
:1025F0008285C285436480F842100169006819B180
:10260000C16841F48071C160416941F001014161DB
:10261000C16841F02001C16018467047B0B504465A
:10262000006844F20045C4F20005A84204D005F554
:102630004C4188425BD12CE040F2F000C2F2000035
:10264000017C0A2901D00D2908D1817899B1014472
:10265000002281F82820012101710CE08278531CAE
:102660005FFA83FC02448370BCF1310F82F82810BA
:1026700024BF3121817000F1100140F24C20C2F2E0
:1026800000000122FFF7A0FF206805F54C418842B9
:102690002DD140F2F000C2F20000C17B0A2901D026
:1026A0000D290BD14178C1B140F24C12C2F20002A7
:1026B00000235354012141710FE000BF4278531CA5
:1026C0005FFA83FC437040F24C13C2F20003BCF18A
:1026D000310F995424BF3121417000F10F0140F2B4
:1026E0000420C2F200000122FFF76EFF206805F50A
:1026F0005041884218BFB0BD40F2F000C2F2000065
:10270000417C0A2901D00D290CD1C178C9B140F210
:102710004C12C2F200021144002281F83220012141
:1027200081710EE0C278531CDDB2C37040F24C13CD
:10273000C2F200031A44312D82F8321024BF312135
:10274000C17000F1110140F29420C2F20000012298
:10275000BDE8B040FFF738BF2DE9F04381B0044633
:1027600090F84100202809D100294FF0010018BF3E
:10277000002A07D101B0BDE8F08300BF022001B0FC
:10278000BDE8F0830020606421201D460E4684F8D9
:1027900041001746FEF7A8FAA784E784A16881469E
:1027A000B1F5805F02D1206900285DD03746002056
:1027B000E28C2168002A5DD06A1C24D0002D4AD00A
:1027C000804600BF0868000608D4FEF78DFAA0EB2B
:1027D0000900A8427AD82168C868F3E717B117F84A
:1027E000010B04E038F8020B00276FF35F2048600C
:1027F000E08C0138E084E08C0028E3D13AE000BFAF
:102800000A68120609D40A68120606D40A68120673
:102810005CBF0A685FEA0262F2D51FB117F8012BAC
:1028200005E000BF30F8022B00276FF35F224A60FB
:10283000E28C013AE284E28C002AE4D11AE000BF83
:1028400030F8022B00276FF35F224A60E28C013AD6
:10285000E284E28C72B10A68120635D5002FEFD0FF
:1028600017F8012BF1E700BF00273046E28C216802
:10287000002AA1D1086840061ED42DB3681C14D1CB
:10288000086840062AD40868400627D4086840062D
:1028900024D4086840064FF00000F1D50DE000BFD9
:1028A0002068C1680068400618D4FEF71DFAA0EB46
:1028B0000900A842F4D909E00020202184F8411041
:1028C00001B0BDE8F08300BFFEF70EFA032020211F
:1028D00084F8411001B0BDE8F08300BF0020202142
:1028E00084F8411001B0BDE8F0830000704700009B
:1028F000FEE7000040F2B010C2F20000FEF718BA86
:1029000010B581B000210091806B40F20801C2F245
:10291000000190F83DC009684BF28952C908C1F224
:10292000F842A1FB0212110A23225143009100999F
:1029300001B30099013900910268116889051DD51C
:102940000099B9B10099013900911168890515D52F
:10295000009979B1009901390091116889050DD567
:10296000009939B100990139009111688905DED4C7
:1029700004E000BF016C41F020010164446B4FF0A2
:10298000000E002C1CBF0021E163816B00291CBFDD
:102990000022CA630268002C136823F4806313606A
:1029A000A0F82AE018BFC4F850E000291CBF00239B
:1029B0000B65116821F00101116090F83D1060294C
:1029C0000CD1202180F83D10002180F83E100164D8
:1029D00001B0BDE81040FEF78DB900BF0CF0280132
:1029E000282911D1116841F001011160116841F4E9
:1029F0008061116000210163282180F83D1001B041
:102A0000BDE81040FEF796BC202180F83D10002163
:102A100080F83E1001B0BDE81040FEF78BBC00000E
:102A200010B5044690F83D1090F83E00B0F1100249
:102A300018BF0122403818BF0120024208BF2229D6
:102A400034D001F0280028283AD100202063282023
:102A500084F83D0020684168090542D5416821F4A9
:102A600000614160606B90F83510012958D1A06B6E
:102A700042F60111C0F600010165FDF765FF00286F
:102A800061D020684169490606D50069616A08700D
:102A9000616A206801316162016821F00101016011
:102AA000202084F83D00A06B4BE000BF2068026846
:102AB00022F4006202604268120505D50CE000BFF6
:102AC00020684268120507D4602905D0202184F8C7
:102AD0003D10002184F83E10002121634168090562
:102AE000BCD494F83D10602950D1202184F83D10C9
:102AF000002121644169490606D50069616A0870B0
:102B0000616A206801316162016821F001010160A0
:102B10002046FEF7EFF8206C000717D11BE000BF3E
:102B200042F60111C0F600010165FDF70DFF50B13D
:102B30002168606B0A6822F001020A60202184F893
:102B40003D10016D8847206C000704D02068416863
:102B500021F4E061416094F83D00216C490758BFC1
:102B600010BD282810D10020CFF6FF70E0620021B0
:102B70002020216384F83D00204684F83E10BDE803
:102B80001040FEF7ADBC00BF10BD00BF4169490653
:102B900005D50069616A0870606A0130606220468C
:102BA000FEF7C8FB206C0007D0D1D4E7C16A428D84
:102BB000042A07D10168426A4B6823F480634B60A2
:102BC000096911E0428D032A16D10268022953686F
:102BD00023F48063536005D0042903D0116821F4E5
:102BE000806111601169426A1170416A013141626C
:102BF000418D013941857047428D022A12D14A1E0A
:102C00000F2A19D8DFE802F008121812181818183D
:102C100018181818181818080268136823F4806325
:102C20000EE000BF0168426ACAE700BF026813688D
:102C300043F4806304E000BF0268136843F4007348
:102C400013601269436A1A70426AD0F800C0531CBC
:102C50004362438D013B4385DCF810305370426A78
:102C6000036801324262428D013A42855A6822F479
:102C700040725A60202280F83D2090F83E300022B9
:102C8000402B80F83E2003D10263FEF72FBC00BF2B
:102C9000B1F1080218BF1222203918BF1146016392
:102CA000FEF720BC81B090F83D10222910D1C16AF6
:102CB000428D042A0ED30168426A09691170416A83
:102CC00001314162418D01394185418D032959D03E
:102CD00001B07047C36A012A54D8022B52D0002297
:102CE000009240F20802C2F2000212684BF28953CD
:102CF000D208C1F2F843A2FB03231A0A02EB8202B4
:102D00000092009A013A0092009A002A42D002688A
:102D100013689B0517D5009B013B0093009BCBB329
:102D200013689B050FD5009B013B0093009B8BB361
:102D300013689B0507D5009B013B0093009B4BB399
:102D400013689B05DDD4136823F480631360536814
:102D500023F4E06353601269436A1A70426A0132D5
:102D60004262428D013A4285202280F83D2090F84F
:102D70003E300022402B80F83E2027D1026301B074
:102D8000FEF7B4BB0068416821F48061416001B086
:102D9000704700BF016C41F0200101640168426A84
:102DA0004B6823F4E0634B6009691170416A01319B
:102DB0004162418D01394185202180F83D1000217B
:102DC00080F83E1001B0FEF7B5BA00BFB1F10802BD
:102DD00018BF1222203918BF1146016301B0FEF757
:102DE00081BB0000C16A90F83D20212A18BF7047BE
:102DF000428D4AB1416A026811F8013B1361416298
:102E0000418D01394185704711F5803F18BF082970
:102E100018D101684A6822F4E0624A600A6842F404
:102E200000720A6000212022016380F83D2090F8A2
:102E30003E2080F83E10402A08BFFEF759BBFEF73F
:102E400053BB00BF2029E4D001684A6822F4E06245
:102E50004A6011210163002180F83E10202180F892
:102E60003D10FEF741BB000090F83D1090F83EC0C9
:102E7000C26A038D002B08BF212919D0212905D052
:102E8000BCF1400F08BF222900D07047418D69B3C3
:102E900090F83E10402908BF00F040B8416A02682F
:102EA00011F8013B13614162418D01394185704741
:102EB00012F5803F18BF082A1ED101684A6822F423
:102EC000E0624A600A6842F400720A60002120222F
:102ED000016380F83D2090F83E2080F83E10402AA3
:102EE00008BFFEF705BBFEF7FFBA00BF00684168E8
:102EF00021F4806141607047202ADED001684A6871
:102F000022F4E0624A6011210163002180F83E1042
:102F1000202180F83D10FEF7E7BA000090F83D1040
:102F2000026D5AB1026D012A14D10168826CD2B2CD
:102F30000A61016D01310165704700BFC26C816C8F
:102F4000012A15D10268C9B21161016D0231016512
:102F5000704700BF026D022A12D1222918D10168E0
:102F60000A6842F480720A60016D013101657047A0
:102F70000268C1F307211161016D013101657047DC
:102F800000684169090644BF00210161704700BF24
:102F9000428D5AB1212909D1416A026811F8013BD9
:102FA00013614162418D013941857047428D002A8C
:102FB00008BF2129EAD101684A6822F4E0624A6028
:102FC0000A6842F400720A6000212022016380F83E
:102FD0003D2080F83E10FEF78BBA0000FEE70000AF
:102FE000FEE700007047000070B540F2F006C2F244
:102FF00000063079012818BF70BD06F128043DA1F4
:1030000020460322FDF77CFA00286BD1D6F82B006E
:1030100045F64D71C4F64F31884231D006F12B058B
:1030200044F25801C0F6000128460522FDF768FA6F
:1030300030B3D6F82B0045F64171C4F64F318842C3
:103040003AD02DA128460522FDF75AFAA0B32CA1AB
:1030500028460322FDF754FA70B32AA12846092214
:10306000FDF74EFA40B940F29420C2F2000028A1C8
:1030700005223223FFF770FBFDF7A2FB32E000BF11
:1030800044F2580106F12B00C0F600010522FDF7BD
:1030900037FA68B9307E01280AD140F29420C2F292
:1030A00000001DA105223223FFF756FB012070729C
:1030B000F0790130F07111E0F07918B101380106B2
:1030C000F0710BD140F2942043F67A71C2F2000005
:1030D000C0F6000105223223FFF73EFBFDF770FB2F
:1030E00000F0B8FE20463221FDF777FA0020B070DC
:1030F000307170BD47533A00415F454E44000000B7
:10310000415F43004E4F545F464F554E4400000010
:103110003031300D0A0000003030330D0A0000005D
:1031200070470000FEF7C4BA70B592B006AC2046F6
:103130003021FDF752FA002543F640000595CDE910
:103140000355CDE901550095C4F20200016802263D
:1031500041F080510160006800F0805000900098BC
:1031600047F200000095C4F20000016841F44041BC
:103170000160006800F44040009000980120099030
:1031800010200A9008200E905420CDE90F0604204C
:10319000119020460696CDE90C65FEF769FC18B142
:1031A00072B600BFFEE700BF0F20CDE901064FF465
:1031B0008050CDE9040501A802210395FEF746FBE6
:1031C00010B172B6FEE700BF12B070BD4EF6885067
:1031D000CEF20000016841F4700101607047000008
:1031E000806B0021C185FEF731BE000081B090F8F0
:1031F0004210222921D183680246B3F5805F09D1AC
:1032000052F8281F52F8183C002B63D003685B6803
:103210000AE000BF52F8281F13B90369002BF5D04C
:1032200003685B6803F07F030B7011680131116064
:10323000C18D01390A04C18502D001B0704700BFB9
:103240000168CA6822F02002CA60CA6822F480724B
:10325000CA604A6922F001024A61202180F84210C6
:1032600000214163026B012A3CD10163016851E8EE
:10327000031F026821F0100142E80313DBB101686B
:1032800051E8031F026821F0100142E8031393B1D3
:10329000016851E8031F026821F0100142E803139E
:1032A0004BB1016851E8031F026821F0100142E8A8
:1032B0000313002BDAD101680A68D20606D5002272
:1032C00000920A680092496800910099818D01B0CE
:1032D000FEF7BABD026852686FF35F2221F8022B35
:1032E0008162A5E701B0FFF799B90000B0B50446C7
:1032F000006804F108030ECB0569194325F4405515
:103300002A4302616269E3691143C268194349F2C1
:103310000C639A431143C1604169A26921F4407171
:1033200041F20043114340F48062C4F201039A4227
:10333000416103D1FEF750FB02E000BFFEF738FB0E
:10334000E1694FF69C7563681922C0F6FF75B1F507
:10335000004FA0FB02011FD15A00DB0FFCF7AAFFB0
:1033600048F21F51C5F2EB11A0FB01235A0905F1E8
:10337000805302FB0300322303EBC000A0FB0101DA
:103380004FF4F87000EA111000EB0210C1F3421183
:10339000084421688860B0BD9A009B0FFCF78AFF43
:1033A00048F21F51C5F2EB11A0FB01235A0902FBA1
:1033B0000500322303EB0010A0FB0101F02000EA1E
:1033C000511000EB0210C1F34311084421688860DA
:1033D000B0BD000040F20420C2F20000FEF774BD50
:1033E00040F24C20C2F20000FEF76EBD40F2942085
:1033F000C2F20000FEF768BDFEE70000C4B044F270
:103400000044C4F20004FEF761F9FFF78DFE0025C9
:1034100043F630000495C4F2020001680C2641F026
:103420008001016001684FF4165201F0800104919F
:1034300004990495016841F001010160016801F0FF
:103440000101049104990495016841F002010160B1
:10345000006804F54C4100F002000490049840F22A
:103460000420C2F2000080E82600C0E90355C0E94C
:103470000565C561FEF7F2FF10B172B6FEE700BF49
:1034800040F24C20C2F200004FF4E131C0E90041AB
:10349000C0E90255C0E90456C0E90655FEF7DEFF53
:1034A00010B172B6FEE700BF40F2B01004F58051D3
:1034B000C2F2000048F2A062002540234FF480478A
:1034C000C0F2010280E82600C0E90337C0E90555D3
:1034D000C0E90755FDF752FF10B172B6FEE700BF15
:1034E00040F2942004F55041C2F200000C234FF446
:1034F000165280E82600C0E90355C0E90535C561CC
:10350000FEF7ACFF10B172B6FEE700BF40F2F00A62
:1035100040F24C29C2F2000AC2F200090AF110017D
:1035200048460122FFF750F840F204200AF10F014B
:10353000C2F200000122FFF747F840F294200AF19E
:103540001101C2F200000122FFF73EF840F2B01074
:103550000AF10E01C2F200000122FEF763F8002515
:103560000DF11008002000BF039000BF9AF80C0076
:10357000012840F07481BAF814004FF0000B00BA33
:10358000000C01218AF80CB0AAF81600BAF816400F
:103590000AEB0B0324FA0BF01F7E00F00102BA4283
:1035A0002AD1BBF10F0F61D00BF1010724FA07F00C
:1035B0005E7E00F00102B24222D1BBF10E0F55D067
:1035C0000BF1020724FA07F09E7E00F00102B242DE
:1035D0001AD1BBF10D0F49D00BF1030724FA07F004
:1035E000DE7E00F00102B24212D10BF1040BBBF1FE
:1035F000100FCDD13AE000BF03F118010BE000BF7E
:1036000003F1190106E000BF03F11A0102E000BF57
:1036100003F11B01BB46002A40F24C02C2F2000239
:1036200040F20C03C2F2000308BF1A4652F82B9076
:1036300000F0010008704846FCF78EFF82B240F2AD
:103640000420C2F2000049463223FFF785F80BF14F
:10365000010B40F24C29BBF1100F4FF00001C2F2F8
:1036600000094FF0000591D103E000BFC80740F00A
:10367000F6809AF819109AF81A200139B1FA81F1F6
:103680004F099AF81B10012A9AF8180008BF013751
:1036900001299AF81C1008BF013701299AF81D105A
:1036A00008BF013701299AF81E1008BF0137012908
:1036B0009AF81F1008BF013701299AF8201008BF97
:1036C000013701299AF8211008BF013701299AF81A
:1036D000221008BF013701299AF8231008BF0137CB
:1036E00001299AF8241008BF013701299AF82510FA
:1036F00008BF013701299AF8261008BF01370129B0
:103700009AF8271008BF0137012908BF0137390689
:1037100013D19AF8091001290FD101280DD140F2D7
:10372000942043F67A71C2F20000C0F6000105222F
:103730003223FFF711F89AF81800FAB210B10021FD
:103740000EE000BF9AF808304FF0FF3757FA83F3C6
:103750001146B3FA83F3002A18BF01215B0919430C
:103760009AF807309AF819709A424FF000028AF8D6
:103770000A109AF800109AF81A6088BF01228AF895
:103780000B207A1EB2FA82F29AF81B305209012EEF
:1037900008BF0132012B9AF81C3008BF0132012BFF
:1037A0009AF81D3008BF0132012B9AF81E3008BF6D
:1037B0000132012B9AF81F3008BF0132012B9AF811
:1037C000203008BF0132012B9AF8213008BF0132A6
:1037D000012B9AF8223008BF0132012B9AF82330CE
:1037E00008BF0132012B9AF8243008BF0132012BA7
:1037F0009AF8253008BF0132012B9AF8263008BF0D
:103800000132012B9AF8273008BF0132012B44F214
:10381000680608BF01320128C0F6000644F26E00B7
:10382000D2B23346C0F6000008BF0346002A07465E
:1038300008BF3746022943F68A7108BF064640464C
:10384000C0F60001CDE90076FCF7ACFD4046FCF780
:1038500083FE82B2484641463223FEF77DFF9AF846
:10386000050001281AD0FFF7BFFB9AF806000128CF
:1038700000F097819AF80000022800F0B681012834
:1038800018D0002840F03082FDF72EFAB0F5FA6F1C
:1038900040F2258201208AF8000025E240F24C1017
:1038A000C2F200000078312870D0302871D1002099
:1038B0006DE000BF9AF80A00012804D09AF80B00C6
:1038C000012840F00C829AF819109AF81A20013950
:1038D000B1FA81F102209AF81B3049098AF80000F8
:1038E0009AF81800012A08BF01319AF81C20012B10
:1038F00008BF0131012A9AF81D2008BF0131012AB1
:103900009AF81E2008BF0131012A9AF81F2008BF2B
:103910000131012A9AF8202008BF0131012A9AF8C2
:10392000212008BF0131012A9AF8222008BF013165
:10393000012A9AF8232008BF0131012A9AF824208D
:1039400008BF0131012A9AF8252008BF0131012A58
:103950009AF8262008BF0131012A9AF8272008BFCB
:103960000131012A08BF0131012844F2680044F204
:103970006E06C0F60000C0F60006CAB2034637461F
:1039800008BF3346002A08BF074696E101208AF89F
:1039900008009AF819109AF81A200139B1FA81F141
:1039A0004F099AF81B10012A9AF8180008BF01372E
:1039B00001299AF81C1008BF013701299AF81D1037
:1039C00008BF013701299AF81E1008BF01370129E5
:1039D0009AF81F1008BF013701299AF8201008BF74
:1039E000013701299AF8211008BF013701299AF8F7
:1039F000221008BF013701299AF8231008BF0137A8
:103A000001299AF8241008BF013701299AF82510D6
:103A100008BF013701299AF8261008BF013701298C
:103A20009AF8271008BF0137012908BF0137390666
:103A300013D19AF8091001290FD101280DD140F2B4
:103A4000942043F67A71C2F20000C0F6000105220C
:103A50003223FEF781FE9AF81800FAB210B1002165
:103A60000EE000BF9AF808304FF0FF3757FA83F3A3
:103A70001146B3FA83F3002A18BF01215B091943E9
:103A80009AF807309AF819709A424FF000028AF8B3
:103A90000A109AF800109AF81A6088BF01228AF872
:103AA0000B207A1EB2FA82F29AF81B305209012ECC
:103AB00008BF0132012B9AF81C3008BF0132012BDC
:103AC0009AF81D3008BF0132012B9AF81E3008BF4A
:103AD0000132012B9AF81F3008BF0132012B9AF8EE
:103AE000203008BF0132012B9AF8213008BF013283
:103AF000012B9AF8223008BF0132012B9AF82330AB
:103B000008BF0132012B9AF8243008BF0132012B83
:103B10009AF8253008BF0132012B9AF8263008BFE9
:103B20000132012B9AF8273008BF0132012B44F2F1
:103B3000680608BF01320128C0F6000644F26E0094
:103B4000D2B23346C0F6000008BF0346002A07463B
:103B500008BF3746022943F68A7108BF0646404629
:103B6000C0F60001CDE90076FCF71CFC4046FCF7EE
:103B7000F3FC82B2484641463223FEF7EDFD40F2A7
:103B80004C10C2F200003221FCF727FD8AF80150E8
:103B90008AF80550FFF728FA9AF8060001287FF402
:103BA00069AE40F24C10C2F2000000F1320743F659
:103BB00080714046C0F600013A46FCF7F3FB4046F0
:103BC000FCF7CAFC82B2484641463223FEF7C4FDE8
:103BD00038463221FCF7DFFC8AF803508AF8065099
:103BE0009AF8000002287FF44AAE9AF80B009AF87F
:103BF0000A10C0B2084372D19AF819109AF81A2024
:103C00000139B1FA81F101209AF81B3049098AF88B
:103C100000009AF81800012A08BF01319AF81C2008
:103C2000012B08BF0131012A9AF81D2008BF01317C
:103C3000012A9AF81E2008BF0131012A9AF81F2094
:103C400008BF0131012A9AF8202008BF0131012A5A
:103C50009AF8212008BF0131012A9AF8222008BFD2
:103C60000131012A9AF8232008BF0131012A9AF86C
:103C7000242008BF0131012A9AF8252008BF01310C
:103C8000012A9AF8262008BF0131012A9AF8272034
:103C900044F2680608BF0131012AC0F6000644F26A
:103CA0006E0708BF0131CAB201283346C0F60007CB
:103CB00008BF3B46002A08BF374643F68A71404694
:103CC000C0F60001CDE90076FCF76CFB4046FCF73E
:103CD00043FC82B2484641463223FEF73DFD9AF846
:103CE000000000283FF442AC9AF80A00012808D1ED
:103CF0009AF8120028B9484652A105223223FEF74D
:103D00002BFD9AF80B0001280DD19AF8131051B928
:103D100040F29420C2F200004CA105223223FEF7AB
:103D20001BFD9AF80B009AF800209AF80A10002A56
:103D30008AF812108AF813003FF418ACFCF7D4FF8D
:103D40000399401A41F288318842FFF40FAC9AF887
:103D500019209AF81A30013AB2FA82F2012B9AF835
:103D60001B304FEA52129AF800009AF8181008BF58
:103D70000132012B9AF81C3008BF0132012B9AF84E
:103D80001D3008BF0132012B9AF81E3008BF0132E6
:103D9000012B9AF81F3008BF0132012B9AF820300E
:103DA00008BF0132012B9AF8213008BF0132012BE4
:103DB0009AF8223008BF0132012B9AF8233008BF4D
:103DC0000132012B9AF8243008BF0132012B9AF8F6
:103DD000253008BF0132012B9AF8263008BF013286
:103DE000012B9AF8273008BF0132012B44F26806F4
:103DF00008BF01320129C0F6000644F26E01D2B2BA
:103E00003346C0F6000108BF0B46002A0F4608BF24
:103E10003746022808BF0E4643F68A714046C0F670
:103E20000001CDE90076FCF7BDFA4046FCF794FBB3
:103E300082B2484641463223FEF78EFCFCF754FF1F
:103E4000FFF792BB736F730D0A0000003030350D21
:103E50000A00000070B5C2B040F2F002C2F20002E7
:103E6000937E547E013BB3FA83F3012CD47E4FEA58
:103E700053131678117E08BF0133012C147F08BF3D
:103E80000133012C547F08BF0133012C947F08BFFC
:103E90000133012CD47F08BF0133012C92F820405C
:103EA00008BF0133012C92F8214008BF0133012CD7
:103EB00092F8224008BF0133012C92F8234008BF3A
:103EC0000133012C92F8244008BF0133012C92F8F1
:103ED000254008BF0133012C92F8264008BF01336A
:103EE00092F82720012C08BF013344F26804012A0C
:103EF00008BF013344F26E00C0F60004DAB2C0F627
:103F000000000129234608BF0346002A054608BFD2
:103F10002546022E43F68A7102AE08BF0446C0F65B
:103F200000013046CDE90054FCF73CFA3046FCF77E
:103F300013FB82B240F24C20C2F200003146322321
:103F4000FEF70AFC42B070BDF1EE100A4FF6FF71A9
:103F5000C0F2C03120EA010040F04070E1EE100AEA
:103F60007047000000000000000001020304060783
:103F7000080900000000010203043030310D0A007E
:103F8000524649443A25730D0A0054423A7B227343
:103F90006F5F68735F7472656E5F7865223A25643F
:103FA0002C20227461695F78655F7472656E5F783A
:103FB00065223A25732C20226768655F636F5F6E08
:103FC00067756F69223A25732C202262616F5F64E6
:103FD0006F6E67223A25737D0D0A006D31300A003D
:103FE0007831300A006D300A0078300A006D3131C6
:103FF0000A007831310A006D310A0078310A006D0B
:1040000031320A007831320A006D320A0078320A01
:10401000007831330A006D330A0078330A007831B2
:10402000340A006D340A0078340A007831350A0009
:104030006D350A0078350A006D360A0078360A00B8
:104040006D370A0078370A006D380A0078380A00A0
:104050006D390A0078390A004D5F454E4400415FD2
:104060004F4B004D5F4F4B0066616C73650074727F
:1040700075650000984000080000002090000000D6
:10408000FC010008284100089000002050080000B2
:104090001C020008000000000100000010000000E9
:1040A0000024F400E93F0008FB3F00080D40000831
:1040B0001A40000827400008344000083C4000082F
:1040C000444000084C40000854400008E03F00080D
:1040D000F23F000804400008114000081E4000089C
:1040E0002B400008E53F0008F73F000809400008A2
:1040F00016400008234000083040000838400008FF
:10410000404000084840000850400008DB3F0008DD
:10411000ED3F0008FF3F0008114000081E40000866
:084120002B4000080000000024
:040000050800019955
:00000001FF
