:020000040800F2
:10000000E0070020BD010008451F00083D1F000853
:10001000411F0008F9050008E12D0008000000005C
:100020000000000000000000000000006D2000083B
:10003000AD06000800000000491F000871200008FC
:10004000D7010008D7010008D7010008D701000830
:10005000D7010008D7010008D7010008D701000820
:10006000D7010008D7010008D7010008D701000810
:10007000D7010008D7010008D7010008D701000800
:10008000D7010008D7010008D7010008D7010008F0
:10009000D7010008D7010008D7010008D7010008E0
:1000A000D7010008D7010008D7010008D7010008D0
:1000B000D7010008D7010008D7010008D7010008C0
:1000C000D7010008D7010008D7010008D7010008B0
:1000D000D7010008D7010008D52D0008D701000876
:1000E000D7010008D7010008D701000800F002F886
:1000F00000F055F814A696E8000CB244B344DA4573
:1001000001D100F04CF8BAE80F000FA696E83000D5
:10011000A5EB040504EB0607AAEB0704A7F101070A
:100120004FEA15154FEA3414A4F10104AC4201D38F
:1001300000F035F813F0010F18BFFB1A43F001036C
:1001400000F001F8DBE71847BC2F0000DC2F0000AF
:10015000103A24BF78C878C1FAD8520724BF30C8F3
:1001600030C144BF04680C60704700007047000055
:100170000023002400250026103A28BF78C1FBD8B0
:10018000520728BF30C148BF0B607047782900F084
:100190007180002070471FB51FBD10B510BD00F065
:1001A000F0F91146FFF7F7FF02F01CFE00F00EFA1F
:1001B00003B4FFF7F2FF03BC00F016FA09488047CA
:1001C00009480047FEE7FEE7FEE7FEE7FEE7FEE739
:1001D000FEE7FEE7FEE7FEE704480549054A064B51
:1001E0007047000075200008ED000008E0010020C5
:1001F000E0070020E0030020E00300200FB41CB55E
:10020000074B06AA7B4469460090059800F0A1F9C7
:100210000020694600F0B0F91CBC5DF814FB00003A
:100220007103000070B5044685690068C10601D5F8
:10023000302600E02026C00707D070BDD4E9012198
:1002400030469047206A401C20626D1EF6D570BD76
:1002500070B5044685690078C00707D170BDD4E940
:10026000012120209047206A401C20626D1EF6D597
:1002700070BD000070B504460D4621461068AFF30E
:1002800000802188090502D50F4A7A4402E00E4A0F
:100290007A440E32002104F1240305E000F00F0639
:1002A0000009965D5E54491C0028F7D12078002390
:1002B000000704D5702D02D009B102231132204667
:1002C000BDE8704000F0E7B8102E00002DE9F05FA7
:1002D000894604464FF0000ADFF824B1FB44C0F819
:1002E00020A02046E168884700287DD0252806D038
:1002F000D4E901219047206A401C2062F1E70025E3
:100300005F462046E16888472028064607DB312EF5
:1003100005D2B81910F8200C08B10543F1E7A80779
:1003200001D525F00405C4F81CA00027C4F818A0C6
:100330002A2E09D0304602F0ABFE38B304EB870812
:10034000303EC8F8186019E059F8041B204604EB49
:1003500087029161E1688847012F064618D1E0695C
:10036000002820DA25F020051DE0D8F8180000EB61
:10037000800006EB40003038C8F818002046E168DD
:100380008847064602F084FE0028EED1012F0AD0ED
:100390002E2E08D12046E16888477F1C0646022F92
:1003A00045F02005C4DBA069002803DA404245F08F
:1003B0000105A061E80701D025F01005A6B1A6F15E
:1003C0004100192802D8203645F400654A463146D6
:1003D000204625604D46FFF7D9FE60B1012807D0C1
:1003E000ED1D25F0070000E007E000F1080978E7BF
:1003F00005F1040975E730467AE7206ABDE8F09F09
:10040000E62D000010B5431C02E010F8011B71B18D
:100410008107FAD14FF0013202C88C1A8C4314EADA
:10042000C211F9D0C01A0A0603D0C01E10BDC01AEE
:1004300010BD0A0401D0801E10BD0902FCD0401E70
:1004400010BD4FF0000200B5134694469646203981
:1004500022BFA0E80C50A0E80C50B1F12001BFF47D
:10046000F7AF090728BFA0E80C5048BF0CC05DF8E3
:1004700004EB890028BF40F8042B08BF704748BF31
:1004800020F8022B11F0804F18BF00F8012B7047A5
:100490007047704770472DE9F0470D4699469246E0
:1004A000044600F124080168880604D5E06921F0BB
:1004B0001001216000E00120A84201DD471B00E09F
:1004C0000027A1697A1902EB0900081AA0612078B7
:1004D000C00602D42046FFF7A5FE002608E0D4E9B6
:1004E00001211AF806009047206A401C761C206201
:1004F0004E45F4DB2078C0060AD52046FFF792FE71
:1005000006E0D4E9012130209047206A401C206297
:10051000381EA7F10107F4DC07E0D4E9012118F83F
:1005200005009047206A401C2062281EA5F10105A5
:10053000F3DC2046FFF78CFE2078000602D502206F
:10054000BDE8F0870120FBE701694A1C02610878D9
:10055000704700B58FB0CDE9013100210591054903
:100560007944CDE9031011466846FFF7AFFE0FB09E
:1005700000BD0000E5FFFFFF0A6802F8010B0A60FA
:100580007047754600F02CF8AE46050069465346A4
:1005900020F00700854618B020B5FFF71DFEBDE826
:1005A00020404FF000064FF000074FF000084FF0DA
:1005B000000BAC46ACE8C009ACE8C009ACE8C00927
:1005C000ACE8C00921F007018D46704710B504461C
:1005D000AFF300802046BDE81040FFF7E9BD000002
:1005E000004870471800002001491820ABBEFEE704
:1005F0002600020070470000FEE7000040F20802FB
:10060000C2F200021368436053688360128901607C
:100610008281704770B50446642015460E4600F08E
:10062000C7F80F20E0716079EBB2A1793344227AE8
:100630001844084410446FF00E01081A00BA66729C
:10064000060C2068A572211D0A224FF47A73A4F8C3
:100650000B60BDE8704001F0A5BB000070B504461A
:1006600064200D460E0A00F0A3F8062025F0FF03D3
:10067000E0716079C3EB1523A1792B44227A1844E9
:10068000084410446FF0FE01081AF93000BA66728F
:10069000060C2068A572211D0A224FF47A73A4F873
:1006A0000B60BDE8704001F07DBB000070470000AA
:1006B000014690F82100022816D10868D1E90FC33D
:1006C000026822F00E020260026822F0010202605B
:1006D000012000FA03F2CCF8042081F82100002068
:1006E000002281F820207047042088630120002226
:1006F00081F820207047000090F82110022923D1B2
:10070000026840F2040C1168C4F2020C21F00E01E0
:10071000116013682F21C4F202018A4223F0010301
:10072000136015DD3023C4F202039A421CD0442327
:10073000C4F202039A421BD05823C4F202039A4225
:100740001CD14FF4803321E00421816301207047E4
:100750000823C4F202039A420ED01C23C4F20203FF
:100760009A420BD1102311E04FF480730EE000BFCA
:100770004FF480530AE000BF012307E00CF1680149
:100780004FF080738A4208BF4FF480130121CCF8E8
:10079000003080F82110416B0022002980F82020D1
:1007A00004BF0020704780B58847002080BD00004E
:1007B000B0B5044600F01EF9054640F20000C2F252
:1007C00000000078611C18BF044400BF00F012F95B
:1007D000401BA042FAD3B0BD2DE9F04F82B00E68A5
:1007E000002E00F0FD8041F20042C4F20102042319
:1007F00040F2004E904208BF03234FF6FF7CC4F244
:10080000010E009300240123C1F2100C4FF0000AE6
:100810004FF000094BE000BF41F20002C4F20102B8
:10082000009F904208BF022704F00C030F229A4059
:100830002BEA020207FA03F34FEA9A051A4346F835
:1008400025204E6840F20C45F202DEF8082054BF25
:1008500022EA080242EA0802C4F20105CEF80820A2
:100860002A68B30254BF22EA080242EA08022A6058
:10087000B303DEF8042054BF22EA080242EA080269
:10088000F303CEF80420DEF800204FF0010354BF3C
:1008900022EA080242EA0802CEF800200E680AF1B5
:1008A000010A36FA0AF204F1040400F0998003FA0E
:1008B0000AFB16EA0B08F1D04E68664512DC122ED0
:1008C00056D8DFE806F0350B4D4955555555555569
:1008D0005555555555555545510000BFD1F80C900B
:1008E00046E000BF4FF6FF72C1F2210296420FDCD4
:1008F0000022C1F2110296421AD00022C1F2120265
:10090000964215D00022C1F22102964210D02FE06B
:100910000022C1F2220296420AD00022C1F2310224
:10092000964205D00022C1F23202964220D100BF89
:100930008A684AB1012A14BFC0F814B0C0F810B0D8
:100940004FF0080914E000BF4FF0040910E000BFA9
:10095000CA6802F104090BE04FF0000908E000BF8B
:10096000CA6802F1080903E0CA6802F10C0900BF75
:1009700002462646B8F5807F24BF0432203E176821
:100980000F25B54027EA050509FA06F63543156037
:10099000CA79D2067FF582AF41F21803C4F202038E
:1009A0001A68AEF57E7642F001021A601A6802F00B
:1009B00001020192019A2AF0030256F802B040F6B1
:1009C0000002C4F20102904208D040F60042C4F294
:1009D000010290427FF420AF012725E7002723E79B
:1009E00002B0BDE8F08F0000002A08BF09040161D1
:1009F0007047000040F2DC10C2F20000006870474F
:100A000040F2000040F2DC11C2F20000C2F200012C
:100A100000780A68104408607047000080B542F210
:100A20000000C4F20200016841F0100101600320DF
:100A300000F08CF80F2000F005F800F027F80020F7
:100A400080BD000070B540F20006C2F2000640F220
:100A500014013278C2F200014FF47A730968B3FBD3
:100A6000F2F20446B1FBF2F1084600F081FD0F2CD2
:100A70004FF0010508D838B94FF0FF302146002269
:100A8000002500F037F87460284670BD82B041F24E
:100A90001800C4F202000168022241F00101016065
:100AA000016801F0010101910199416841F0805113
:100AB0004160406800F08050009000980420C4F22B
:100AC0000100016862F31A61016002B07047000022
:100AD000002848BF704700F01F01012202FA01F10F
:100AE0001C2202EAD0004EF20012CEF20002815027
:100AF0007047000010B54EF60C5CCEF2000CDCF82E
:100B00000030C3F3022E8EF00704042C28BF042407
:100B1000BEF103034FF0FF3E0EFA04F438BF00238A
:100B2000A14399400EFA03F39A43114300F00F02D8
:100B300000F160430901043A03F56443624400286C
:100B400048BF02F10C03197010BD00004EF60C51A5
:100B5000CEF200010A684FF6FF031A4060F30A2242
:100B600042F0806040F0FD7008607047002804BFCC
:100B7000012070472DE9F04381B042F20008C4F231
:100B800002080446D8F800000D4600F00700814234
:100B90000CD9D8F8000020F007002843C8F800005E
:100BA000D8F8000000F00700A8426CD1206841F29C
:100BB00004098107C4F2020917D5410705D5D9F800
:100BC000001041F4E061C9F80010010705D5D9F81B
:100BD000001041F46051C9F80010D9F80010A26863
:100BE00021F0F0011143C9F80010C00742D1D8F834
:100BF000000000F0070085420CD2D8F8000020F079
:100C000007002843C8F80000D8F8000000F00700EB
:100C1000A84238D12068410707D5D9F80010E2680A
:100C200021F4E0611143C9F80010000708D5D9F894
:100C30000000216920F4605040EAC100C9F80000BA
:100C4000D9F8002002F00C00082841F20020C0F280
:100C50007A004DD143F2F103C2F38341C0F60003A1
:100C6000595CD20338D440F60010C0F23D0048432E
:100C70003EE000BF606859F8041C022808D0012833
:100C800026D1890306D4012001B0BDE8F08300BF5E
:100C90008901F8D5D9F8001021F003010843C9F8FB
:100CA0000000FFF7A7FE064641F28837D9F800009A
:100CB000616800F00C00B0EB810F98D0FFF79AFE4E
:100CC000801BB842F2D9032001B0BDE8F08300BF19
:100CD0008907D8D5DEE700BFD9F8002043F2EF033B
:100CE000C2F34042C0F600039A5C4843B0FBF2F006
:100CF000D9F8001043F2D702C1F30311C0F6000285
:100D0000515C40F2140220FA01F140F20400C2F2F8
:100D100000000068C2F200021160FFF793FE00209D
:100D200001B0BDE8F083000040F2140041F204017C
:100D3000C2F20000C4F202010068096843F2E7024F
:100D4000C1F30221C0F60002515CC84070470000A8
:100D500040F2140041F20401C2F20000C4F20201A8
:100D60000068096843F2E702C1F3C221C0F600023D
:100D7000515CC84070470000002804BF0120704744
:100D80002DE9F04182B00446007841F20006C00728
:100D9000C4F202060CD0706800F00C00042840F089
:100DA00081803068800303D56068002800F04681A8
:100DB000207880071BD5706810F00C0F09D0706880
:100DC00000F00C00082840F087807068C00300F134
:100DD00083803068800703D52069012840F02E8188
:100DE0003068616920F0F80040EAC1003060207886
:100DF000000713D4207840072CD4E569002D00F0BB
:100E00001881706800F00C00082840F0A780012DC0
:100E100040F00481012002B0BDE8F081A069002803
:100E200000F084800020C4F242200121C0F8801428
:100E3000FFF7E0FD054600BF706A800700F1B28051
:100E4000FFF7D8FD401B0228F6D9032002B0BDE809
:100E5000F08100BFF0695FEAC00808D4F06940F093
:100E60008050F061F06900F080500090009847F2E7
:100E70000007C4F200073868C00549D4386840F458
:100E800080703860FFF7B6FD054600BF3868C005C2
:100E90003ED4FFF7AFFD401B6428F7D9032002B012
:100EA000BDE8F081706800F00C00082803D170687C
:100EB000C0033FF576AF61683068002900F00C810F
:100EC000B1F5A02F00F00081B1F5803F40F01A810C
:100ED00040F480301CE100BF2069002840F200008F
:100EE000C4F2422000F0888001210160FFF782FDFA
:100EF000054600BF306880073FF572AFFFF77AFD07
:100F0000401B0228F6D9032002B0BDE8F08100BFE3
:100F1000E168306A002900F09D80052900F0928088
:100F2000012940F0AF8040F00100B1E00020C4F2A0
:100F300042200021C0F88014FFF75CFD054600BF89
:100F4000706A80077FF556AFFFF754FD401B0228FB
:100F5000F6D9032002B0BDE8F08100BF0027C4F23B
:100F6000422700203866FFF745FD022D05460DD1CA
:100F70003068800140F1DE80FFF73CFD401B022815
:100F80004FF00300F4D902B0BDE8F0813068800171
:100F90004FD5FFF72FFD401B02284FF00300F5D976
:100FA000F1E700BF40F21400C2F20000006844F60E
:100FB000D351C1F26201A0FB0101480A019000BFB8
:100FC00000BF0198411E002801913FF413AF00BFFC
:100FD0000198411E002801913FF40CAF00BF019819
:100FE000411E002801913FF405AF00BF0198411E4A
:100FF00000280191E4D1FDE600210160FFF7FAFC31
:10100000054600BF306880077FF5F1AEFFF7F2FCC0
:10101000401B02284FF00300F4D9B4E77068216A3E
:1010200000F480328A4209D1616A00F4701088426B
:1010300004D1002002B0BDE8F08100BF012002B061
:10104000BDE8F08140F004003062306A40F00100F9
:101050001EE000BF20F001003062306A20F0040082
:101060003062FFF7C7FC054641F28837306A8007D7
:1010700020D5FFF7BFFC401BB8424FF00300F5D965
:1010800081E700BF20F001003062306A20F00400E8
:101090003062FFF7AFFC054641F28837306A8007BF
:1010A00008D4FFF7A7FC401BB842F7D9032002B0D1
:1010B000BDE8F081B8F1000F3FF59FAEF06920F078
:1010C0008050F06199E600BF40F4802030603068C5
:1010D00040F480301CE000BF20F480303060306885
:1010E00020F480203060FFF785FC054630688003DF
:1010F0007FF55EAEFFF77EFC401B64284FF00300D7
:10110000F4D940E720F480303060306820F480204B
:101110003060FFF76FFC0546306880033FF548AE4E
:10112000FFF768FC401B6428F6D9032002B0BDE835
:10113000F08100BF206AB0F5803F05D17168A268D8
:1011400021F40031114371607168626A21F47411F5
:1011500011430843706001203866FFF74BFC0446DA
:10116000306880013FF565AFFFF744FC001B0228A3
:101170004FF00300F4D906E770B528B1416A29B1F0
:1011800000210161142106E0012070BD4168B1F524
:10119000827F02D01C21002242500026866290F8F5
:1011A000511029B980F85060054600F039F82846FA
:1011B000022180F8511090E82E0002F482720C682F
:1011C00003F4044324F040040C601A4405F4006363
:1011D00005691A4405F0020345691A4405F0010344
:1011E0008569C4691A4405F400731A4404F038038D
:1011F000046A1A4404F08003846A1A4304F4005316
:101200001A430A60042202EA15424A60CA6922F4BB
:101210000062CA610121466580F85110304670BDF8
:1012200070B586B040F60004C4F20104006804F50D
:101230002051002688420596CDE90366029601D02A
:1012400006B070BD41F21800C4F20200016802ADA0
:1012500041F480510160016801F4805101910199CC
:10126000016841F0040101600068294600F00400B3
:1012700001900198A0200290022003900320059085
:101280002046FFF7A9FA4020CDE90206204629466C
:101290000496FFF7A1FA06B070BD00002DE9F043F7
:1012A00083B01E4615460F460446FFF7A3FB94F88D
:1012B00051108146012909D1002F4FF0010018BFBC
:1012C000002D0FD103B0BDE8F08300BF6068B0F51A
:1012D000827F0DD104294FF00200F3D1A1680029CB
:1012E000EAD0EFE7002EEDD094F85000012803D1AA
:1012F000022003B0BDE8F083012084F8500094F888
:101300005100002104281CBF052084F851006165AC
:10131000A563E687A6872763E6862068A6862164FC
:1013200061640168490603D4016841F0400101602D
:101330006168731EE268B1FA81F1B3FA83F3DDF8F4
:10134000288049095B09B2F5006F41EA030165D1C4
:1013500031B137F8021BC1602763E08E0138E086A7
:10136000012518F1010032D102E000BFFFF742FB76
:10137000E08E18B9E08F002800F0B88020688168FE
:1013800089070CD5E18E51B1012D08D1216B0025C3
:1013900031F8022BC2602163E18E0139E186816858
:1013A000C907E3D0E18F0029E0D0C068A16B012517
:1013B00021F8020BA163E08F0138E087D6E700BF78
:1013C000FFF718FBA0EB0900404580F0AF80E08EEE
:1013D00018B9E08F002800F08980206881688907AB
:1013E0000CD5E18E51B1012D08D1216B002531F8CA
:1013F000022BC2602163E18E0139E1868168C90751
:10140000DED0E18F0029DBD0C068A16B012521F877
:10141000020BA163E08F0138E087D1E739B1397859
:101420000173206B01302063E08E0138E0860125D6
:1014300018F1010032D101E0FFF7DCFAE08E10B9BB
:10144000E08F002852D02068816889070ED5E18E90
:1014500061B1012D0AD1216B002509780173216B3F
:10146000206801312163E18E0139E1868168C90775
:10147000E2D0E18F0029DFD0C068A16B01250870A0
:10148000A06B0130A063E08F0138E087D4E700BF94
:10149000FFF7B0FAA0EB0900404547D2E08E08B94B
:1014A000E08F18B32068816889070ED5E18E61B19D
:1014B000012D0AD1216B002509780173216B206869
:1014C00001312163E18E0139E1868168C907DFD0EE
:1014D000E18F0029DCD0C068A16B01250870A06BEA
:1014E0000130A063E08F0138E087D1E72046022178
:1014F00001224346CDF8009000F028FD40B9204677
:10150000802100224346CDF8009000F01FFDB8B1C5
:10151000606D40F02000606520206065002084F848
:101520005000012003B0BDE8F08300BF012084F823
:101530005100002084F85000032003B0BDE8F08380
:10154000A06838B9002002902068C16802918068C4
:1015500002900298012084F85100002084F8500085
:10156000606D002818BF012003B0BDE8F0830000C3
:10157000411E0020B0EB116F1CBF012070474EF2DE
:101580001002CEF2000251604EF62351CEF200015D
:10159000F0230B70072190601160704770470000C6
:1015A00070470000B0B582B001680A68CC684B692A
:1015B00002F02F05202D04F0200505D125B102B041
:1015C000BDE8B04001F086BB5FEA027C1EBF03F0BD
:1015D000010E04F4907313EB0E0341D1036BD50697
:1015E00018D5012B16D114F0100313D0002201924C
:1015F0000A6801924A680192019A496949064BD4E6
:10160000818DC28DC38D002B18BF914240F0F481B3
:1016100002B0B0BD13062DD514F080032AD090F887
:101620004120212AF4D18268B2F5805F03D102699A
:10163000002A00F06782026A531C036212784A6033
:10164000C28C013A1304C284E2D1C86820F0800041
:10165000C860C86840F04000C86002B0B0BD00BFBC
:10166000D30718BF14F4807340F0D080530700F103
:10167000D380D8E05206CBD514F04002C8D0CA6857
:1016800022F04002CA60202180F8411002B0BDE87B
:10169000B04000F051BC00BFC16B0A68526893B201
:1016A000002BB5D0858DAB42B2D2C2858969202985
:1016B00000F0A180016851E8031F026821F48071E5
:1016C00042E80313DBB1016851E8031F026821F40B
:1016D000807142E8031393B1016851E8031F026867
:1016E00021F4807142E803134BB1016851E8031FF4
:1016F000026821F4807142E80313002BDAD10168FB
:1017000051E8051F026821F0010142E80513C3B347
:10171000016851E8051F026821F0010142E8051344
:101720007BB3016851E8051F026821F0010142E81E
:10173000051333B3016851E8051F026821F0010168
:1017400042E80513002BDAD11BE000BF016851E825
:10175000051F026821F0400142E80513DBB1016872
:1017600051E8051F026821F0400142E8051393B1DA
:10177000016851E8051F026821F0400142E80513A5
:101780004BB1016851E8051F026821F0400142E8B1
:101790000513002BDAD1202180F8421000210163CB
:1017A000016851E8031F026821F0100142E80313A9
:1017B000DBB1016851E8031F026821F0100142E823
:1017C000031393B1016851E8031F026821F010016F
:1017D00042E803134BB1016851E8031F026821F08E
:1017E000100142E80313002BDAD1C16B044608460E
:1017F000FEF75EFF204602214163818DC28D891A6A
:1018000089B202B0BDE8B040FFF7C8BE436C43F0F8
:1018100001034364530706D5BEF1000F03D0436CA8
:1018200043F002034364930706D5BEF1000F03D0D3
:10183000436C43F004034364BCF1000F06D55EEA39
:10184000050303D0436C43F008034364436C002B4F
:101850003FF4DEAE920605D525B1044601F03AFA12
:10186000216820464969426C01F0400102F00802FB
:10187000891800F0B98000BF016851E8031F0268B1
:1018800021F4907142E80313BBB3016851E8031FD0
:10189000026821F4907142E8031373B3016851E8C0
:1018A000031F026821F4907142E803132BB301680F
:1018B00051E8031F026821F4907142E80313002BE2
:1018C000DAD11AE0016851E8051F026821F0010130
:1018D00042E80513DBB1016851E8051F026821F0F9
:1018E000010142E8051393B1016851E8051F026840
:1018F00021F0010142E805134BB1016851E8051FD1
:10190000026821F0010142E80513002BDAD1016BD6
:10191000012924D1016851E8031F026821F0100158
:1019200042E80313DBB1016851E8031F026821F0AC
:10193000100142E8031393B1016851E8031F0268E4
:1019400021F0100142E803134BB1016851E8031F75
:10195000026821F0100142E80313002BDAD12021A4
:1019600080F842100021016301684969490640F18D
:10197000C380016851E8051F026821F0400142E878
:101980000513DBB1016851E8051F026821F0400131
:1019900042E8051393B1016851E8051F026821F080
:1019A000400142E805134BB1016851E8051F026888
:1019B00021F0400142E80513002BDAD1C16B002968
:1019C00000F09A8042F6C942C0F60002044608467A
:1019D0004A63FEF791FE00283FF41AAEE06B416BBC
:1019E00002B0BDE8B04008470446FFF7D9FD00202B
:1019F000606402B0B0BD00BF891A00BF026852E83F
:101A0000032F036822F4907243E80325BDB30268F4
:101A100052E8032F036822F4907243E8032575B35C
:101A2000026852E8032F036822F4907243E803250A
:101A30002DB3026852E8032F036822F4907243E842
:101A40000325002DDAD11AE0026852E8052F036859
:101A500022F0010243E80525DDB1026852E8052FB6
:101A6000036822F0010243E8052595B1026852E8B7
:101A7000052F036822F0010243E805254DB10268F5
:101A800052E8052F036822F0010243E80525002DE6
:101A9000DAD1202280F8422000220263026852E854
:101AA000032F036822F0100243E80325DDB102682A
:101AB00052E8032F036822F0100243E8032595B192
:101AC000026852E8032F036822F0100243E803255E
:101AD0004DB1026852E8032F036822F0100243E878
:101AE0000325002DDAD1022289B2426302B0BDE89B
:101AF000B040FFF753BD00BF02B0BDE8B040FFF7F4
:101B00004FBD00BF026A32F8023B6FF35F234B60A8
:101B1000026295E5002804BF0120704710B5044615
:101B200090F8410028B9002084F84000204600F0D9
:101B300063F8242084F841002068D4E90212C368C5
:101B400023F40053C360036923F440531A43026132
:101B5000D4E904231143C268194341F20C639A4348
:101B60001143C1604169A26921F44071114343F6F8
:101B70000002C4F201029042416103D0FFF7D4F8A1
:101B800002E000BFFFF7E4F8D4E90023192148433D
:101B90009900B0FBF1F048F21F5CC5F2EB1CA0FB12
:101BA0000C314FF69C734909C0F6FF7301FB03002B
:101BB000322303EB0010A0FB0C03F02000EA5310CB
:101BC00000EB0110C3F34311084490601069202119
:101BD00020F490401061506920F02A005061D068D4
:101BE00040F40050D0600020606484F8411084F814
:101BF0004210606310BD000070B586B0006844F20A
:101C00000041C4F20001002688420596CDE9036632
:101C1000029637D043F60001C4F20101884266D132
:101C200041F21800C4F20200016840F6000441F4D9
:101C3000804101600168C4F2010401F48041019116
:101C40000199016802AD41F0040101600068294674
:101C500000F00400019001984FF4007002900220FF
:101C60000390032005902046FEF7B6FD4FF48060F8
:101C700002900020CDE9030020462946FEF7ACFD86
:101C800006B070BD41F21800C4F20200416840F68F
:101C9000000441F4003141604168C4F2010401F4E0
:101CA000003101910199016802AD41F00401016028
:101CB0000068294600F00400019001980420029079
:101CC00002200390032005902046FEF785FD0820A2
:101CD000CDE90206204629460496FEF77DFD262022
:101CE00000210022FEF706FF2620FEF7F1FE06B0D7
:101CF00070BD000090F84230202B07D100294FF032
:101D0000010318BF002A05D1184670470223184660
:101D1000704700BF00230363816222218285C28550
:101D2000436480F842100169006819B1C16841F448
:101D30008071C160416941F001014161C16841F0B8
:101D40002001C16018467047006844F20041C4F2A7
:101D50000001884218BF704740F27800C2F20000CC
:101D600081780A2901D00D2908D1017891B1014467
:101D700000220A76012141700CE000BF0278531C5A
:101D80005FFA83FC02440370BCF1310F117624BF6B
:101D900031210170811C40F29410C2F20000012236
:101DA000FFF7A8BF2DE9F04381B0044690F8410049
:101DB000202809D100294FF0010018BF002A07D1BF
:101DC00001B0BDE8F08300BF022001B0BDE8F083A0
:101DD0000020606421201D460E4684F8410017460D
:101DE000FEF708FEA784E784A1688146B1F5805F0D
:101DF00002D1206900285DD037460020E28C21689E
:101E0000002A5DD06A1C24D0002D4AD0804600BF35
:101E10000868000608D4FEF7EDFDA0EB0900A84213
:101E20007AD82168C868F3E717B117F8010B04E006
:101E300038F8020B00276FF35F204860E08C013810
:101E4000E084E08C0028E3D13AE000BF0A68120683
:101E500009D40A68120606D40A6812065CBF0A682A
:101E60005FEA0262F2D51FB117F8012B05E000BF4F
:101E700030F8022B00276FF35F224A60E28C013AB0
:101E8000E284E28C002AE4D11AE000BF30F8022B91
:101E900000276FF35F224A60E28C013AE284E28C11
:101EA00072B10A68120635D5002FEFD017F8012B52
:101EB000F1E700BF00273046E28C2168002AA1D15B
:101EC000086840061ED42DB3681C14D1086840066B
:101ED0002AD40868400627D40868400624D4086835
:101EE00040064FF00000F1D50DE000BF2068C1684A
:101EF0000068400618D4FEF77DFDA0EB0900A8425B
:101F0000F4D909E00020202184F8411001B0BDE897
:101F1000F08300BFFEF76EFD0320202184F84110FE
:101F200001B0BDE8F08300BF0020202184F84110FB
:101F300001B0BDE8F083000070470000FEE700003C
:101F4000FEE70000FEE70000704700002DE9F043C7
:101F500081B0089C984615460E468146FEF74AFD1C
:101F6000201A00EB0804FEF745FD40F21401C2F20E
:101F700000010968C1F3CB3161430091D9F8001029
:101F80008A683240921BB2FA82F2520995423DD0E1
:101F9000074618F1010031D0FEF72CFDC01BA0420E
:101FA00038D2009800990028A1F101010091D9F8D8
:101FB0000010896808BF044601EA0600801BB0FAD9
:101FC00080F040098542E7D120E000BF88683040BA
:101FD000801BB0FA80F04009854217D088683040F5
:101FE000801BB0FA80F0400985420FD088683040ED
:101FF000801BB0FA80F04009854207D088683040E5
:10200000801BB0FA80F040098542DFD1002001B08A
:10201000BDE8F083D9E900014268B1F5827F22F082
:10202000E00242600BD1D9F80810B1F5004F02D0A0
:10203000B1F5806F03D1016821F040010160D9F84A
:102040002810B1F5005F07D1016821F4005101604B
:10205000016841F400510160012089F8510000201D
:1020600089F85000032001B0BDE8F08370470000FC
:10207000FEF7C6BC70470000F0B583B040F60044E0
:10208000C4F201042046012100220026FEF7ACFC28
:1020900040F2F405A820C2F200058DF8090064277B
:1020A0000DF1090102AA284601238DF80860009766
:1020B000FFF7F4F80DF10B010DF10A022846012398
:1020C0008DF80B608DF80A600097FFF7E7F89DF830
:1020D0000A50204601210122FEF786FCA80701D004
:1020E00003B0F0BD1420032100F072FB03B0F0BD7B
:1020F0002DE9F04184B040F60048C4F201080446DE
:102100004046012100220027FEF76EFC40F2F40653
:102110001A20C2F200068DF80D0064250DF10D01A4
:1021200003AA304601238DF80C700095FFF7B6F82E
:102130000DF10F010DF10E02304601238DF80F70E5
:102140008DF80E700095FFF7A9F840460121012295
:10215000FEF74AFC42F2930020800DF10A070C20A2
:10216000214602222346009700F09AFB10B104B0EA
:10217000BDE8F08120786178A278E378484050404B
:1021800021795840401A18BF0120400004B0BDE832
:10219000F08100002DE9F04F83B00C46054640F673
:1021A0000047052004210192C4F2010700F064F900
:1021B0000A20802100F00CFBD4B340F2F40A6E1E1A
:1021C0004FF0000B4FF06408C2F2000A0DF10B094A
:1021D0000DF10A0540F6004016F8017FC4F2010037
:1021E00001210022FEF700FC12208DF80B00504662
:1021F00049462A4601238DF80AB0CDF80080FFF742
:102200004DF88DF80B7040F60047504649462A4677
:102210000123C4F201078DF80AB0CDF80080FFF762
:102220003DF8384601210122FEF7DEFB013CD1D109
:102230003846012100220025FEF7D6FB40F2F406C5
:102240000220C2F200060DF10B080DF10A048DF810
:102250000B004FF0640A30464146224601238DF8B8
:102260000A50CDF800A0FFF719F803208DF80B00F5
:102270000DF10B010DF10A02304601238DF80A50D1
:10228000CDF800A0FFF70AF8384601210122FEF739
:10229000ABFB40F6004BFF27C4F2010B584601216F
:1022A0000022FEF7A1FB8A208DF80B003046414644
:1022B000224601238DF80A50CDF800A0FEF7EEFF6C
:1022C00030464146224601238DF80B508DF80A50C6
:1022D000CDF800A0FEF7E2FF9DF80A9058460121D4
:1022E0000122FEF781FB013F380602D019F00400FD
:1022F000D4D040F60049C4F2010948460121002229
:102300000026FEF771FB40F2F404C420C2F2000480
:102310008DF80B004FF064080DF10B010DF10A026E
:10232000204601238DF80A60CDF80080FEF7B6FF45
:102330000DF10B010DF10A02204601238DF80B600F
:102340008DF80A60CDF80080FEF7A8FF9DF80A70AE
:10235000484601210122FEF747FB019D4846012125
:1023600000222F70FEF740FBC2208DF80B000DF10C
:102370000B010DF10A02204601238DF80A60CDF809
:102380000080FEF78BFF0DF10B010DF10A022046D4
:1023900001238DF80B608DF80A60CDF80080FEF700
:1023A0007DFF9DF80A40484601210122FEF71CFBF3
:1023B0006C7003B0BDE8F08F2DE9F04184B040F6B9
:1023C0000048C4F2010804464046012100220027CB
:1023D000FEF70AFB40F2F4061A20C2F200068DF85E
:1023E000070064250DF107010DF1060230460123B7
:1023F0008DF806700095FEF751FF07208DF8090053
:102400000DF1090102AA304601238DF808700095EC
:10241000FEF744FF404601210122FEF7E5FA26209F
:10242000207001AF0C20214601222346009700F0C6
:1024300037FA4FF0020538B9BDF80400102803D16F
:102440002046FFF755FE054650200DF10A04ADF871
:102450000A00A21C20460221FFF79CFE0DF10E0788
:102460000C20214604222346009700F019FA284642
:1024700004B0BDE8F08100002DE9F04784B040F6DB
:102480000048C4F201088946064640460121002260
:102490000027FEF7A9FA802040F2F40540EA460042
:1024A000C2F200058DF809004FF0640A0DF1090130
:1024B00002AA284601238DF80870CDF800A0FEF787
:1024C000EDFE0DF10B010DF10A02284601238DF8F6
:1024D0000B708DF80A70CDF800A0FEF7DFFE9DF8B6
:1024E0000A40404601210122FEF77EFA40460121C2
:1024F000002224EA0904FEF777FA7E2000EA46006B
:102500008DF80D000DF10D0103AA284601238DF869
:102510000C70CDF800A0FEF7C1FE0DF10F010DF11A
:102520000E02284601238DF80F408DF80E70CDF86D
:1025300000A0FEF7B3FE404601210122FEF754FA47
:1025400004B0BDE8F0870000F0B583B040F6004469
:10255000C4F20104204601210122FEF745FA20467B
:10256000012100220027FEF73FFA40F2F405022085
:10257000C2F200058DF80B0064260DF10B010DF180
:102580000A02284601238DF80A700096FEF786FE9F
:102590000F208DF80B000DF10B010DF10A022846FA
:1025A00001238DF80A700096FEF778FE204601217F
:1025B0000122FEF719FA204601210022FEF714FA43
:1025C00054208DF80B000DF10B010DF10A02284685
:1025D00001238DF80A700096FEF760FE8D208DF8BD
:1025E0000B000DF10B010DF10A02284601238DF8B5
:1025F0000A700096FEF752FE204601210122FEF7E6
:10260000F3F9204601210022FEF7EEF956208DF85D
:102610000B000DF10B010DF10A02284601238DF884
:102620000A700096FEF73AFE3E208DF80B000DF181
:102630000B010DF10A02284601238DF80A7000965D
:10264000FEF72CFE204601210122FEF7CDF920469F
:1026500001210022FEF7C8F95A208DF80B000DF178
:102660000B010DF10A02284601238DF80A7000962D
:10267000FEF714FE1E208DF80B000DF10B010DF17D
:102680000A02284601238DF80A700096FEF706FE1E
:10269000204601210122FEF7A7F920460121002250
:1026A000FEF7A2F958208DF80B000DF10B010DF18A
:1026B0000A02284601238DF80A700096FEF7EEFD07
:1026C0000DF10B010DF10A02284601238DF80B7064
:1026D0008DF80A700096FEF7E1FD204601210122E7
:1026E000FEF782F9204601210022FEF77DF94C20F9
:1026F0008DF80B000DF10B010DF10A0228460123A4
:102700008DF80A700096FEF7C9FD70208DF80B0059
:102710000DF10B010DF10A02284601238DF80A7014
:102720000096FEF7BBFD204601210122FEF75CF971
:10273000204601210022FEF757F92A208DF80B00D0
:102740000DF10B010DF10A02284601238DF80A70E4
:102750000096FEF7A3FD40208DF80B000DF10B0154
:102760000DF10A02284601238DF80A700096FEF743
:1027700095FD204601210122FEF736F92046012170
:102780000022FEF731F922208DF80B000DF10B012C
:102790000DF10A02284601238DF80A700096FEF713
:1027A0007DFD3D208DF80B000DF10B010DF10A02AE
:1027B000284601238DF80A700096FEF76FFD20462B
:1027C00001210122FEF710F9FFF756FC03B0F0BD1E
:1027D0002DE9F04784B040F60048C4F2010889466C
:1027E00006464046012100220027FEF7FDF8802022
:1027F00040F2F40540EA4600C2F200058DF80900F7
:102800004FF0640A0DF1090102AA284601238DF850
:102810000870CDF800A0FEF741FD0DF10B010DF1A0
:102820000A02284601238DF80B708DF80A70CDF846
:1028300000A0FEF733FD9DF80A4040460121012229
:10284000FEF7D2F840460121002244EA0904FEF7CF
:10285000CBF87E2000EA46008DF80D000DF10D0149
:1028600003AA284601238DF80C70CDF800A0FEF7CE
:1028700015FD0DF10F010DF10E02284601238DF813
:102880000F408DF80E70CDF800A0FEF707FD404612
:1028900001210122FEF7A8F804B0BDE8F08700008E
:1028A0002DE9F04F87B017460C2888460293049014
:1028B00006D00E2808D111200590122007E000BF95
:1028C00031200590772002E001200590002040F69D
:1028D0000045C4F20105039000F18004284601215F
:1028E00000224FF0000AFEF77FF840F2F4060420C1
:1028F000C2F200068DF81B004FF064090DF11B01B8
:102900000DF11A02304601238DF81AA0CDF800907F
:10291000FEF7C4FC0DF11B010DF11A023046012334
:102920008DF81B408DF81AA0CDF80090FEF7B6FC8C
:10293000284601210122FEF757F804208021FFF7E5
:102940009BFD0A208021FFF743FF2846012100223A
:10295000FEF74AF802208DF81B000DF11B010DF166
:102960001A02304601238DF81AA0CDF80090FEF728
:1029700095FC0DF11B010DF11A02304601238DF873
:102980001BA08DF81AA0CDF80090FEF787FC284612
:1029900001210122FEF728F8B7B340F2F40BA8F1A9
:1029A0000108C2F2000B00BF18F8019F2846012160
:1029B0000022FEF719F812208DF81B0000200DF1FF
:1029C0001B0A0DF11A068DF81A0058465146324678
:1029D00001233C4664270097FEF760FC00208DF839
:1029E0001B904FF064098DF81A0058465146324644
:1029F0000123CDF80090FEF751FC28460121012269
:102A0000FDF7F2FF671ECFD1284601210022FDF716
:102A1000EBFF40F2F4080220C2F200088DF81B0020
:102A200000240DF11B010DF11A02404601238DF81F
:102A30001A40CDF80090FEF731FC049F0DF11B0108
:102A40000DF11A02404601238DF81B708DF81A40D3
:102A5000CDF80090FEF722FC284601210122FDF767
:102A6000C3FF0C2F03D10D208021FFF7B1FE40F2F0
:102A7000F40A40F600484FF4FA654FF000094FF0B1
:102A8000640BC2F2000A0DF11B070DF11A06C4F225
:102A9000010800BF404601210022FDF7A5FF882064
:102AA0008DF81B0050463946324601238DF81A90A6
:102AB000CDF800B0FEF7F2FB50463946324601230E
:102AC0008DF81B908DF81A90CDF800B0FEF7E6FB5C
:102AD0009DF81A40404601210122FDF785FF013D86
:102AE000280400F0E98005982042D3D00D208021F1
:102AF000FFF7C2FC40F60049C4F201094846012133
:102B000000220026FDF770FF40F2F4058C20C2F28F
:102B100000058DF81B0064270DF11B010DF11A0251
:102B2000284601238DF81A600097FEF7B7FB0DF1D8
:102B30001B010DF11A02284601238DF81B608DF848
:102B40001A600097FEF7AAFB9DF81A50484601212B
:102B50000122FDF749FF15F01B0F40F0B1800398EB
:102B6000049920400C2900F0010040F0AA80059053
:102B700048460121002201274FF0000BFDF734FFEA
:102B800040F2F4049420C2F200048DF81B00642586
:102B90000DF11B010DF11A02204601238DF81AB028
:102BA0000095FEF77BFB0DF11B010DF11A0220468B
:102BB00001238DF81BB08DF81AB00095FEF76EFB5F
:102BC0009DF81A80484601210122FDF70DFF484675
:102BD00001210022FDF708FF98208DF81B000DF160
:102BE0001B010DF11A02204601238DF81AB0009541
:102BF000FEF754FB0DF11B010DF11A0220460123D3
:102C00008DF81BB08DF81AB00095FEF747FB9DF8C4
:102C10001A60484601210122FDF7E6FE16F0070082
:102C200040EAC8001099A0F1080008BF4FEAC800A8
:102C30000880B8F1010F98BFB846B8F1100F28BF4F
:102C40004FF01008029840F2F404471EC2F200044C
:102C5000484601210022FDF7C7FE92200DF11B0519
:102C60000DF11A068DF81B00204629463246012335
:102C70004FF0640A8DF81AB0CDF800A0FEF70EFBF5
:102C800020462946324601238DF81BB08DF81AB034
:102C9000CDF800A0FEF702FB9DF81AA048460121DE
:102CA0000122FDF7A1FEB8F1010807F801AFCFD16D
:102CB000059807B0BDE8F08F0D208021FFF7DCFB01
:102CC000022007B0BDE8F08F406A0021C185C184B1
:102CD000FEF766BC81B090F84210222921D18368AA
:102CE0000246B3F5805F09D152F8281F52F8183C0C
:102CF000002B63D003685B680AE000BF52F8281F0E
:102D000013B90369002BF5D003685B6803F07F03F8
:102D10000B70116801311160C18D01390A04C18540
:102D200002D001B0704700BF0168CA6822F02002DB
:102D3000CA60CA6822F48072CA604A6922F001023D
:102D40004A61202180F8421000214163026B012A70
:102D50003CD10163016851E8031F026821F01001B2
:102D600042E80313DBB1016851E8031F026821F058
:102D7000100142E8031393B1016851E8031F026890
:102D800021F0100142E803134BB1016851E8031F21
:102D9000026821F0100142E80313002BDAD1016828
:102DA0000A68D20606D5002200920A680092496895
:102DB00000910099818D01B0FEF7F0BB0268526866
:102DC0006FF35F2221F8022B8162A5E701B0FEF7C5
:102DD000BBBF000040F29410C2F20000FEF7E2BB5D
:102DE000FEE7000092B0FDF719FE00240120CDE9B6
:102DF0000D44CDE90B440C9010200D904FF40020B1
:102E00000225119008A8CDE909440895CDE90F5491
:102E1000FDF7B2FF20B1EFF3108072B6FEE700BFFE
:102E20000F20CDE9030503A80021CDE9054407944F
:102E3000FDF79CFE20B1EFF3108072B6FEE700BFF5
:102E4000002541F21800CDE90A55CDE90855C4F234
:102E50000200016840F6004441F020010160016871
:102E6000C4F2010401F020010391039901680022DA
:102E700041F0040101600168012601F004010391A1
:102E80000399016841F0080101600068012100F028
:102E90000800039003982046FDF7A6FD02200B9042
:102EA00008A92046CDE908660A95FDF795FC40F291
:102EB000F40004F51051C2F200004FF482724FF496
:102EC000007380E826000A21C0E90355C0E90553D4
:102ED000C561C0E90855C0E90A51FEF74DF928B1AE
:102EE000EFF3108072B600BFFEE700BF40F24C1057
:102EF00004F53051C2F200004FF416570C26C0E919
:102F00000017C0E90255C0E90456C0E90655FEF7AE
:102F100001FE28B1EFF3108072B600BFFEE700BFDC
:102F200040F29410A4F54841C2F200004FF0000AAC
:102F300080E88204C0E903AAC0E9056AC0F81CA0C1
:102F4000FEF7E8FD20B1EFF3108072B6FEE700BF98
:102F5000FFF7FAFA40F27804C2F2000404F1080B19
:102F600040F24C11C2F200015846FDF747FB5846AB
:102F70000F21FDF773FB4FF4FA60FDF719FC58467B
:102F800002210222FDF746FB40F29410A11CC2F27E
:102F900000000122FEF7AEFE43F23008E61C04F109
:102FA0004A07C0F2330804F118090CE0584603211F
:102FB0000322FDF72FFB4846322184F801A084F854
:102FC00000A0FDF73EFA3046FFF7F6F920B1607831
:102FD0000128F8D120E000BF6079A179E278237957
:102FE000E579CDE90001384623A10295FDF706F900
:102FF0003846FDF707FA82B240F29410C2F20000A0
:1030000039464FF47A73FEF7CDFE4FF4FA70FDF7B0
:10301000CFFB60780128D6D1A0694045C6D0A06911
:1030200043F23001C0F23401884219D0A06943F262
:103030003001C0F23101884216D0A06943F230015C
:10304000C0F23501884213D0A06943F23001C0F2CA
:1030500032018842AFD1584602210222A9E700BFBF
:10306000584604210422A4E7584601210122A0E782
:103070005846052105229CE7253032582530325824
:103080002530325825303258253032580D0A00008C
:1030900030380A2801D201207047002070473031B3
:1030A000323334353637383941424344454640306F
:1030B0005800303132333435363738396162636421
:1030C0006566403078000400000800000000000041
:1030D00000020001000010000000000000000001DC
:1030E00002030406070809000000000102030401AE
:1030F0000202030405060708090A0B0C0D0E0F1047
:103100001000000028310008000000201800000016
:10311000500100084031000818000020C8070000D6
:103120007001000800000000010000001000000015
:103130007EFF06000000000000EF000000127A0091
:04000005080000ED02
:00000001FF
